{
  "contractName": "Ownable",
  "abi": [
    {
      "inputs": [],
      "stateMutability": "nonpayable",
      "type": "constructor"
    },
    {
      "inputs": [],
      "name": "admin",
      "outputs": [
        {
          "internalType": "address payable",
          "name": "",
          "type": "address"
        }
      ],
      "stateMutability": "view",
      "type": "function"
    }
  ],
  "bytecode": "0x608060405234801561001057600080fd5b50336000806101000a81548173ffffffffffffffffffffffffffffffffffffffff021916908373ffffffffffffffffffffffffffffffffffffffff160217905550610114806100606000396000f3fe6080604052348015600f57600080fd5b50600436106045576000357c010000000000000000000000000000000000000000000000000000000090048063f851a44014604a575b600080fd5b60506064565b604051605b91906095565b60405180910390f35b60008054906101000a900473ffffffffffffffffffffffffffffffffffffffff1681565b608f8160ae565b82525050565b600060208201905060a860008301846088565b92915050565b600060b78260be565b9050919050565b600073ffffffffffffffffffffffffffffffffffffffff8216905091905056fea26469706673582212205ffc5e46304456b288b1cbecb3b9150e950bf00bc6b6f44e9e0476ce9119ea4264736f6c63430008050033",
  "immutableReferences": {},
  "source": "// SPDX-License-Identifier: UNLICENSED\r\npragma solidity 0.8.5;\r\n\r\n\r\n/**\r\n* @title Utility super-class to provide basic ownership features\r\n*/\r\ncontract Ownable {\r\n\r\n\t/// Current smart-contract owner/admin\r\n\taddress payable public admin;\r\n\r\n\tconstructor() {\r\n\t\tadmin = payable(msg.sender);\r\n\t}\r\n\r\n\t/// Allowed only by the admin\r\n\tmodifier onlyAdmin {\r\n\t\trequire(msg.sender == admin, \"Only the admin is allowed to do this!\");\r\n\t\t_;\r\n\t}\r\n}\r\n\r\n\r\n\r\n\r\n/**\r\n * @title Utility contract to store a property listing\r\n */\r\ncontract TrustedPropertyListing {\r\n\r\n    enum PropertyType {\r\n        House,                         //  0 House\r\n        ApartmentAndUnit,              //  1 Apartment and unit\r\n        Townhouse,                     //  2 Townhouse\r\n        Villa,                         //  3 Villa\r\n        BlockOfUnits,                  //  4 Block of units (?)\r\n        RetirementLiving               //  5 Retirement living\r\n    }\r\n\r\n    // The number of rooms, bathrooms, parking spaces, etc.\r\n    enum NumberOf {\r\n        Zero,                          //  0 Zero\r\n        One,                           //  1 One\r\n        Two,                           //  2 Two\r\n        Three,                         //  3 Three\r\n        Four,                          //  4 Four\r\n        Five,                          //  5 Five\r\n        SixOrMore                      //  6 Six or more\r\n    }\r\n\r\n\r\n    // TODO: Require a legal property-document-id to verify property\r\n    // TODO: Add floor (uint8)\r\n    // TODO: Add country_code (gives stack too deep error - max 16 local variables allowed in a function)\r\n    struct Property {\r\n        string id;\r\n        bool doesExist;\r\n        bool isActive;\r\n        PropertyType propertyType;\r\n        bytes8 unit_number;            // House/Apartment/Flat number\r\n        bytes6 pincode;\r\n        string location;\r\n        NumberOf rooms;\r\n        NumberOf bathrooms;\r\n        NumberOf parking;\r\n        // string comments;\r\n        uint initialAvailableDate;\r\n        address originalOwner;\r\n        address currentTenant;\r\n        uint256 postedAt;               // Date of listing\r\n    }\r\n\r\n    /// Public view of a listed property\r\n    struct PropertyView {\r\n        bool isActive;\r\n        bool isAvailable;\r\n        PropertyType propertyType;\r\n        bytes8 unit_number;            // House/Apartment/Flat number\r\n        bytes6 pincode;\r\n        string location;\r\n        NumberOf rooms;\r\n        NumberOf bathrooms;\r\n        NumberOf parking;\r\n        address originalOwner;\r\n        uint currentRent;\r\n        uint currentSecurity;\r\n    }\r\n\r\n\r\n    /// Struct to hold the property rent details\r\n    struct PropertyRent {\r\n        uint security_deposit;                  // Initial security deposit required (in wei)\r\n\t\tuint rent_amount;                       // Rent amount per month (in wei)\r\n\t\tuint256 updatedAt;                      // Rent update timestamp\r\n    }\r\n\r\n\r\n    /// Mapping of property_id to the Property data\r\n    /// TODO: Make private\r\n    mapping (string => Property) internal properties;\r\n\r\n    /// Mapping of property_id to it's Rent data\r\n    /// TODO: Make private\r\n    mapping (string => PropertyRent) internal propertyRents;\r\n\r\n    /// Mapping of hash of a property to property_id\r\n    mapping (bytes32 => string) private propertyHashes;\r\n\r\n    uint32 public propertyCount = 0;\r\n    uint32 public activePropertyCount = 0;\r\n\r\n\r\n    event PropertyAdded(address ownerAddress, string property_id);\r\n    event PropertyRemoved(address ownerAddress, string property_id);\r\n    event RentChanged(string property_id, uint security_deposit, uint rent_amount);\r\n\r\n\r\n    modifier propertyOwnerOnly(string memory property_id) {\r\n        require(properties[property_id].originalOwner == msg.sender, \"Only property owner can do this\");\r\n        _;\r\n    }\r\n\r\n    modifier propertyExists(string memory property_id) {\r\n        require(properties[property_id].doesExist, \"Property does not exist\");\r\n        _;\r\n    }\r\n\r\n    modifier propertyDoesNotExist(string memory property_id) {\r\n        require(!properties[property_id].doesExist, \"Property already exists\");\r\n        _;\r\n    }\r\n\r\n    modifier propertyIsActive(string memory property_id) {\r\n        require(properties[property_id].isActive, \"Property is in-active exists\");\r\n        _;\r\n    }\r\n\r\n    modifier propertyNotActive(string memory property_id) {\r\n        require(!properties[property_id].isActive, \"Property is already active exists\");\r\n        _;\r\n    }\r\n\r\n\r\n    /// Return the hash of a property\r\n    // TODO: Add country_code, unique legal property-document-id, etc\r\n    function _propertyHash(\r\n        PropertyType propertyType,\r\n        bytes8 unit_number,\r\n        bytes6 pincode,\r\n        string memory location\r\n    ) private pure returns (bytes32) {\r\n        return keccak256(abi.encode(propertyType, unit_number, pincode, location));\r\n    }\r\n\r\n\r\n    /// Add new property\r\n    function addProperty (\r\n        string memory property_id,\r\n        PropertyType propertyType,\r\n        bytes8 unit_number,\r\n        bytes6 pincode,\r\n        string memory location,\r\n        NumberOf rooms,\r\n        NumberOf bathrooms,\r\n        NumberOf parking,\r\n        // string memory comments,\r\n        uint initialAvailableDate)\r\n    public\r\n    {\r\n        addPropertyOnBehalfOfOwner({\r\n            property_id: property_id,\r\n            originalOwner: msg.sender,\r\n            location: location,\r\n            propertyType: propertyType,\r\n            unit_number: unit_number,\r\n            pincode: pincode,\r\n            rooms: rooms,\r\n            bathrooms: bathrooms,\r\n            parking: parking,\r\n            // comments: comments,\r\n            initialAvailableDate: initialAvailableDate\r\n        });\r\n    }\r\n\r\n\r\n    /// Add new property on behalf of another owner\r\n    function addPropertyOnBehalfOfOwner (\r\n        string memory property_id,\r\n        address originalOwner,\r\n        PropertyType propertyType,\r\n        bytes8 unit_number,\r\n        bytes6 pincode,\r\n        string memory location,\r\n        NumberOf rooms,\r\n        NumberOf bathrooms,\r\n        NumberOf parking,\r\n        // string memory comments,\r\n        uint initialAvailableDate)\r\n    public\r\n    propertyDoesNotExist(property_id)\r\n    {\r\n        require(originalOwner != address(0x0), \"Invalid originalOwner address (0x0)\");\r\n        require(!properties[propertyHashes[_propertyHash(propertyType, unit_number, pincode, location)]].doesExist, \"Duplicate property hash!\");\r\n\r\n        properties[property_id] = Property({\r\n            id: property_id,\r\n            doesExist: true,\r\n            isActive: true,\r\n            originalOwner: originalOwner,\r\n            location: location,\r\n            propertyType: propertyType,\r\n            unit_number: unit_number,\r\n            pincode: pincode,\r\n            rooms: rooms,\r\n            bathrooms: bathrooms,\r\n            parking: parking,\r\n            // comments: comments,\r\n            initialAvailableDate: initialAvailableDate,\r\n            currentTenant: address(0x0),\r\n            postedAt: block.timestamp\r\n        });\r\n\r\n        propertyCount++;\r\n        activePropertyCount++;\r\n\r\n        emit PropertyAdded(originalOwner, property_id);\r\n    }\r\n\r\n\r\n    /// Get the property details\r\n    /// @dev anyone can get the property details\r\n    function getProperty (\r\n        string memory property_id)\r\n    public\r\n    view\r\n    propertyExists(property_id)\r\n    returns (PropertyView memory)\r\n    {\r\n        return PropertyView({\r\n            isActive: properties[property_id].isActive,\r\n            isAvailable: properties[property_id].currentTenant != address(0x0),\r\n            location: properties[property_id].location,\r\n            propertyType: properties[property_id].propertyType,\r\n            unit_number: properties[property_id].unit_number,\r\n            pincode: properties[property_id].pincode,\r\n            rooms: properties[property_id].rooms,\r\n            bathrooms: properties[property_id].bathrooms,\r\n            parking: properties[property_id].parking,\r\n            originalOwner: properties[property_id].originalOwner,\r\n            currentRent: propertyRents[property_id].rent_amount,\r\n            currentSecurity: propertyRents[property_id].security_deposit\r\n        });\r\n    }\r\n\r\n\r\n    /// Set rent for the property\r\n    /// @dev Only the property owner can set rent\r\n    function setRent (\r\n        string memory property_id,\r\n        uint security_deposit,\r\n        uint rent_amount)\r\n    public\r\n    propertyIsActive(property_id)\r\n    propertyOwnerOnly(property_id)\r\n    returns (bool)\r\n    {\r\n        properties[property_id].isActive = true;\r\n        propertyRents[property_id] = PropertyRent({\r\n            security_deposit: security_deposit,\r\n    \t\trent_amount: rent_amount,\r\n    \t\tupdatedAt: block.timestamp\r\n        });\r\n        return true;\r\n    }\r\n\r\n\r\n    /// Is the property available for renting?\r\n    /// @dev Returns true if property is active, not currently rented and the rent amount is set\r\n    function isPropertyAvailable (\r\n        string memory property_id)\r\n    public\r\n    view\r\n    returns (bool)\r\n    {\r\n        return properties[property_id].isActive && properties[property_id].currentTenant != address(0x0) && propertyRents[property_id].rent_amount > 0;\r\n    }\r\n\r\n\r\n    //only original owner can mark property as in-active\r\n    function deactivateProperty (\r\n        string memory property_id)\r\n    public\r\n    propertyIsActive(property_id)\r\n    propertyOwnerOnly(property_id)\r\n    returns (bool)\r\n    {\r\n        properties[property_id].isActive = false;\r\n        activePropertyCount--;\r\n        return true;\r\n    }\r\n\r\n\r\n    //only original owner can mark property as active\r\n    function activateProperty (\r\n        string memory property_id)\r\n    public\r\n    propertyExists(property_id)\r\n    propertyNotActive(property_id)\r\n    propertyOwnerOnly(property_id)\r\n    returns (bool)\r\n    {\r\n        properties[property_id].isActive = true;\r\n        activePropertyCount++;\r\n        return true;\r\n    }\r\n\r\n}\r\n\r\n\r\n\r\n\r\n/**\r\n * @title Basic contract for TrustedProperties\r\n */\r\ncontract TrustedPropertiesBasicRentContract is TrustedPropertyListing, Ownable {\r\n\r\n    /// How much wei/token required as fee for any transaction?\r\n    uint public contractTransactionFee;\r\n\r\n    enum AgreementStatus {\r\n    \tUninitialized,     // 0\r\n    \tDepositPending,    // 1\r\n    \tActive,            // 2\r\n    \tCompleted,         // 3\r\n    \tTerminated         // 4\r\n    }\r\n\r\n\r\n\tstruct RentContract {\r\n\r\n\t\tbool doesExist;\r\n\r\n\t\tstring property_id;\r\n\t\tAgreementStatus status;\r\n\t\taddress owner;                          // Property owner address\r\n\t\taddress tenant;                         // Tenant address\r\n\t\tuint security_deposit;                  // Initial security deposit required (in wei)\r\n\t\tuint rent_amount;                       // Rent amount per month (in wei)\r\n\t\tuint8 duration;                         // Duration of the agreement (in months)\r\n\t\tuint8 remaining_payments;               // Count of monthly payments due\r\n\t\tuint security_deposit_balance;          // Current balance of security deposit\r\n        bytes10 start_date;                     // Contract start date (format: yyyy-mm-dd)\r\n\t\tuint8 duration_extension_request;       // Duration (in months) for contract extension requested by Tenant\r\n\t\tuint256 createdAt;                      // Contract creation timestamp\r\n\t}\r\n\r\n    /// Mapping of contract_id to the Contract data\r\n\tmapping (uint => RentContract) private contracts;\r\n\r\n\t/// Mapping of users' balances (user address to amount due)\r\n\tmapping (address => uint) private balances;\r\n\r\n\r\n\r\n\t// ----------------- EVENTS --------------------------------------\r\n\r\n\t/// Notify whenever a contract is added\r\n    /// @param contract_id ID of the contract\r\n    event ContractAdded(uint contract_id);\r\n\r\n    /// Notify whenever security amount is deposited\r\n    /// @param contract_id ID of the contract\r\n    event SecurityDeposited(uint contract_id, uint amount, uint trxn_fee);\r\n\r\n    /// Notify whenever a rent is paid\r\n    /// @param contract_id ID of the contract\r\n    /// @param amount Rent amount paid\r\n    /// @param trxn_fee Fee deducted for the transaction\r\n    event RentPaid(uint contract_id, uint amount, uint trxn_fee);\r\n\r\n    /// Notify whenever the contract is prematurely terminated\r\n    /// @param contract_id ID of the contract\r\n    event ContractTerminated(uint contract_id);\r\n\r\n    /// Notify whenever the contract is prematurely terminated\r\n    /// @param contract_id ID of the contract\r\n    event ExtraAmountRefunded(uint contract_id, uint amount);\r\n\r\n    /// Notify whenever a request to extend the contract duration is made by the tenant\r\n    /// @param contract_id ID of the contract\r\n    /// @param extension_duration The number of months for which thetenant wants to extend the contract\r\n    event ContractDurationExtensionRequested(uint contract_id, uint8 extension_duration);\r\n\r\n    /// Notify whenever a request to extend the contract duration is confirmed by the owner\r\n    /// @param contract_id ID of the contract\r\n    /// @param extension_duration The number of months for which the contract is extended\r\n    event ContractDurationExtended(uint contract_id, uint8 extension_duration);\r\n\r\n\r\n\r\n\t// ----------------- MODIFIERS --------------------------------------\r\n\r\n    modifier contractExists(uint contract_id) {\r\n        require(contracts[contract_id].doesExist, \"Contract does not exist\");\r\n        _;\r\n    }\r\n\r\n    modifier contractDoesNotExist(uint contract_id) {\r\n        require(!contracts[contract_id].doesExist, \"Contract already exists\");\r\n        _;\r\n    }\r\n\r\n    modifier ownerOnly(uint contract_id) {\r\n        require(msg.sender == contracts[contract_id].owner, \"Only the registered property owner is allowed to do this\");\r\n        _;\r\n    }\r\n\r\n    modifier tenantOnly(uint contract_id) {\r\n        require(msg.sender == contracts[contract_id].tenant, \"Only the registered tenant is allowed to do this\");\r\n        _;\r\n    }\r\n\r\n    modifier activeContractOnly(uint contract_id) {\r\n        require(contracts[contract_id].status == AgreementStatus.Active, \"This is only allowed for active contracts\");\r\n        _;\r\n    }\r\n\r\n\r\n\r\n\t// ----------------- METHODS --------------------------------------\r\n\r\n    constructor (uint trxnFee) {\r\n        contractTransactionFee = trxnFee;\r\n    }\r\n\r\n\r\n    /// Initialize RentContract by the owner\r\n    function initializeRentContract(\r\n        uint contract_id,\r\n        string memory property_id,\r\n        address tenant,\r\n        uint8 duration,\r\n        bytes10 start_date\r\n    )\r\n    public\r\n    propertyOwnerOnly(property_id)\r\n    contractDoesNotExist(contract_id) {\r\n\r\n        require(isPropertyAvailable(property_id), \"Property not available for renting\");\r\n        require(propertyRents[property_id].rent_amount > contractTransactionFee, \"Rent must be more than fee!\");\r\n        require(propertyRents[property_id].security_deposit > contractTransactionFee, \"Security deposit must be more than fee!\");\r\n\r\n        contracts[contract_id] = RentContract({\r\n            doesExist: true,\r\n            property_id: property_id,\r\n            status: AgreementStatus.DepositPending,\r\n            owner: msg.sender,\r\n            tenant: tenant,\r\n            security_deposit: propertyRents[property_id].security_deposit,\r\n            rent_amount: propertyRents[property_id].rent_amount,\r\n            duration: duration,\r\n            start_date: start_date,\r\n            remaining_payments: duration,\r\n            security_deposit_balance: 0,\r\n            duration_extension_request: 0,\r\n            createdAt: block.timestamp\r\n        });\r\n\r\n        emit ContractAdded(contract_id);\r\n    }\r\n\r\n\r\n    /// Deposit the security amount from tenant to owner\r\n    /// @param contract_id The id of the contract to deposit security amount for\r\n    function depositSecurity(uint contract_id)\r\n    public\r\n    payable\r\n    contractExists(contract_id)\r\n    tenantOnly(contract_id) {\r\n\r\n        // RentContract contract = contracts[contract_id];\r\n\r\n        require(contracts[contract_id].status == AgreementStatus.DepositPending, \"Security already deposited\");\r\n        require(msg.value >= contracts[contract_id].security_deposit, \"Insufficient security deposit amount\");\r\n\r\n        uint debit_amount = contracts[contract_id].security_deposit;\r\n\r\n        contracts[contract_id].security_deposit_balance = (debit_amount - contractTransactionFee);\r\n\t\tcontracts[contract_id].status = AgreementStatus.Active;\r\n\r\n\r\n\t\t// Transfer the security deposit amount to owner (minus the platform fee)\r\n\t\t// balances[contracts[contract_id].owner] += (debit_amount - contractTransactionFee);\r\n\r\n\t\t// Refund any extra amount to the tenant\r\n\t\tif (msg.value > debit_amount) {\r\n\t\t    balances[contracts[contract_id].tenant] += (msg.value - debit_amount);\r\n\t\t}\r\n\r\n\t\temit SecurityDeposited(contract_id, contracts[contract_id].security_deposit, contractTransactionFee);\r\n\t\temit ExtraAmountRefunded(contract_id, msg.value - debit_amount);\r\n    }\r\n\r\n\r\n\r\n    /// Deposit the security amount from tenant to owner\r\n    /// @param contract_id The id of the contract to pay rent for\r\n    /// @dev only Tenant can pay the rent\r\n    function payRent(uint contract_id)\r\n    public\r\n    payable\r\n    contractExists(contract_id)\r\n    tenantOnly(contract_id)\r\n    activeContractOnly(contract_id) {\r\n\r\n        // RentContract contract = contracts[contract_id];\r\n\r\n        require(msg.value >= contracts[contract_id].rent_amount, \"Insufficient rent amount\");\r\n\r\n        contracts[contract_id].remaining_payments -= 1;\r\n        if (contracts[contract_id].remaining_payments == 0) {\r\n            // Contract over\r\n\t\t    contracts[contract_id].status = AgreementStatus.Completed;\r\n\r\n\t\t    // Refund security deposit to the Tenant\r\n\t\t    balances[contracts[contract_id].tenant] += contracts[contract_id].security_deposit_balance;\r\n        }\r\n\r\n        uint debit_amount = contracts[contract_id].rent_amount;\r\n\r\n\r\n\t\t// Transfer the rent amount to owner (minus the platform fee)\r\n\t\tbalances[contracts[contract_id].owner] += (debit_amount - contractTransactionFee);\r\n\r\n\t\t// Refund any extra amount to the tenant\r\n\t\tif (msg.value > debit_amount) {\r\n\t\t    balances[contracts[contract_id].tenant] += (msg.value - debit_amount);\r\n\t\t}\r\n\r\n\t\temit RentPaid(contract_id, contracts[contract_id].security_deposit, contractTransactionFee);\r\n\t\temit ExtraAmountRefunded(contract_id, msg.value - debit_amount);\r\n    }\r\n\r\n\r\n    /**\r\n     * Allow users to withdraw from their wallet\r\n     * @return whether the withdrawal was successful\r\n     */\r\n    function withdraw() public returns (bool) {\r\n        uint amount = balances[msg.sender];\r\n\r\n        if (amount > 0) {\r\n            balances[msg.sender] = 0;\r\n\r\n            if (!payable(msg.sender).send(amount)) {\r\n                balances[msg.sender] = amount;\r\n                return false;\r\n            }\r\n        }\r\n\r\n        return true;\r\n    }\r\n\r\n\r\n    /// Get the funds available in self's wallet\r\n    function getPendingFunds() public view returns (uint) {\r\n        return balances[msg.sender];\r\n    }\r\n\r\n\r\n    /// Get the details of a contract\r\n    /// @param contract_id The id of the contract to get details of\r\n    function getContractDetails(uint contract_id)\r\n        public\r\n        view\r\n        contractExists(contract_id)\r\n        returns ( RentContract memory) {\r\n\r\n        require(msg.sender == contracts[contract_id].owner ||\r\n            msg.sender == contracts[contract_id].tenant ||\r\n            msg.sender == admin,\r\n            \"You are not allowed to view this contract\");\r\n\r\n        return RentContract({\r\n            doesExist: true,\r\n            property_id: contracts[contract_id].property_id,\r\n            status: contracts[contract_id].status,\r\n            owner: contracts[contract_id].owner,\r\n            tenant: contracts[contract_id].tenant,\r\n            security_deposit: contracts[contract_id].security_deposit,\r\n            rent_amount: contracts[contract_id].rent_amount,\r\n            duration: contracts[contract_id].duration,\r\n            remaining_payments: contracts[contract_id].remaining_payments,\r\n            security_deposit_balance: contracts[contract_id].security_deposit_balance,\r\n            start_date: contracts[contract_id].start_date,\r\n            duration_extension_request: contracts[contract_id].duration_extension_request,\r\n            createdAt: contracts[contract_id].createdAt\r\n        });\r\n    }\r\n\r\n\r\n    /// Request to extend the contract duration - from tenant to owner\r\n    /// @param contract_id The id of the contract to to pay rent for\r\n    /// @param extension_duration The number of months for which thetenant wants to extend the contract\r\n    /// @dev only Tenant can make the request\r\n    function extendContractDurationRequest(uint contract_id, uint8 extension_duration)\r\n    public\r\n    contractExists(contract_id)\r\n    tenantOnly(contract_id)\r\n    activeContractOnly(contract_id) {\r\n\r\n        contracts[contract_id].duration_extension_request = extension_duration;\r\n\r\n        emit ContractDurationExtensionRequested(contract_id, extension_duration);\r\n    }\r\n\r\n\r\n\t/// Request to extend the contract duration - from tenant to owner\r\n    /// @param contract_id The id of the contract to to pay rent for\r\n    /// @param extension_duration The number of months for which thetenant wants to extend the contract\r\n    /// @dev only Property Owner can make the request\r\n    function extendContractDurationConfirm(uint contract_id, uint8 extension_duration)\r\n    public\r\n    contractExists(contract_id)\r\n    ownerOnly(contract_id)\r\n    activeContractOnly(contract_id) {\r\n\r\n        require(contracts[contract_id].duration_extension_request == extension_duration, \"Extension-duration does not match the what is requested by the tenant\");\r\n\r\n        contracts[contract_id].duration += extension_duration;\r\n        contracts[contract_id].remaining_payments += extension_duration;\r\n        contracts[contract_id].duration_extension_request = 0;\r\n\r\n        emit ContractDurationExtended(contract_id, extension_duration);\r\n    }\r\n\r\n}",
  "sourcePath": "D:\\rentals_ethereum_blockchain\\contracts\\TrustedPropertiesBasicRentContract.sol",
  "compiler": {
    "name": "solc",
    "version": "0.8.5+commit.a4f2e591.Emscripten.clang"
  },
  "schemaVersion": "3.4.3",
  "updatedAt": "2021-09-19T17:36:42.809Z",
  "devdoc": {
    "kind": "dev",
    "methods": {},
    "title": "Utility super-class to provide basic ownership features",
    "version": 1
  },
  "userdoc": {
    "kind": "user",
    "methods": {
      "admin()": {
        "notice": "Current smart-contract owner/admin"
      }
    },
    "version": 1
  }
}