{
  "contractName": "TrustedPropertiesBasicRentContract",
  "abi": [
    {
      "inputs": [
        {
          "internalType": "uint256",
          "name": "trxnFee",
          "type": "uint256"
        }
      ],
      "stateMutability": "nonpayable",
      "type": "constructor"
    },
    {
      "anonymous": false,
      "inputs": [
        {
          "indexed": false,
          "internalType": "uint256",
          "name": "contract_id",
          "type": "uint256"
        }
      ],
      "name": "ContractAdded",
      "type": "event"
    },
    {
      "anonymous": false,
      "inputs": [
        {
          "indexed": false,
          "internalType": "uint256",
          "name": "contract_id",
          "type": "uint256"
        },
        {
          "indexed": false,
          "internalType": "uint8",
          "name": "extension_duration",
          "type": "uint8"
        }
      ],
      "name": "ContractDurationExtended",
      "type": "event"
    },
    {
      "anonymous": false,
      "inputs": [
        {
          "indexed": false,
          "internalType": "uint256",
          "name": "contract_id",
          "type": "uint256"
        },
        {
          "indexed": false,
          "internalType": "uint8",
          "name": "extension_duration",
          "type": "uint8"
        }
      ],
      "name": "ContractDurationExtensionRequested",
      "type": "event"
    },
    {
      "anonymous": false,
      "inputs": [
        {
          "indexed": false,
          "internalType": "uint256",
          "name": "contract_id",
          "type": "uint256"
        }
      ],
      "name": "ContractTerminated",
      "type": "event"
    },
    {
      "anonymous": false,
      "inputs": [
        {
          "indexed": false,
          "internalType": "uint256",
          "name": "contract_id",
          "type": "uint256"
        },
        {
          "indexed": false,
          "internalType": "uint256",
          "name": "amount",
          "type": "uint256"
        }
      ],
      "name": "ExtraAmountRefunded",
      "type": "event"
    },
    {
      "anonymous": false,
      "inputs": [
        {
          "indexed": false,
          "internalType": "address",
          "name": "ownerAddress",
          "type": "address"
        },
        {
          "indexed": false,
          "internalType": "string",
          "name": "property_id",
          "type": "string"
        }
      ],
      "name": "PropertyAdded",
      "type": "event"
    },
    {
      "anonymous": false,
      "inputs": [
        {
          "indexed": false,
          "internalType": "address",
          "name": "ownerAddress",
          "type": "address"
        },
        {
          "indexed": false,
          "internalType": "string",
          "name": "property_id",
          "type": "string"
        }
      ],
      "name": "PropertyRemoved",
      "type": "event"
    },
    {
      "anonymous": false,
      "inputs": [
        {
          "indexed": false,
          "internalType": "string",
          "name": "property_id",
          "type": "string"
        },
        {
          "indexed": false,
          "internalType": "uint256",
          "name": "security_deposit",
          "type": "uint256"
        },
        {
          "indexed": false,
          "internalType": "uint256",
          "name": "rent_amount",
          "type": "uint256"
        }
      ],
      "name": "RentChanged",
      "type": "event"
    },
    {
      "anonymous": false,
      "inputs": [
        {
          "indexed": false,
          "internalType": "uint256",
          "name": "contract_id",
          "type": "uint256"
        },
        {
          "indexed": false,
          "internalType": "uint256",
          "name": "amount",
          "type": "uint256"
        },
        {
          "indexed": false,
          "internalType": "uint256",
          "name": "trxn_fee",
          "type": "uint256"
        }
      ],
      "name": "RentPaid",
      "type": "event"
    },
    {
      "anonymous": false,
      "inputs": [
        {
          "indexed": false,
          "internalType": "uint256",
          "name": "contract_id",
          "type": "uint256"
        },
        {
          "indexed": false,
          "internalType": "uint256",
          "name": "amount",
          "type": "uint256"
        },
        {
          "indexed": false,
          "internalType": "uint256",
          "name": "trxn_fee",
          "type": "uint256"
        }
      ],
      "name": "SecurityDeposited",
      "type": "event"
    },
    {
      "inputs": [
        {
          "internalType": "string",
          "name": "property_id",
          "type": "string"
        }
      ],
      "name": "activateProperty",
      "outputs": [
        {
          "internalType": "bool",
          "name": "",
          "type": "bool"
        }
      ],
      "stateMutability": "nonpayable",
      "type": "function"
    },
    {
      "inputs": [],
      "name": "activePropertyCount",
      "outputs": [
        {
          "internalType": "uint32",
          "name": "",
          "type": "uint32"
        }
      ],
      "stateMutability": "view",
      "type": "function",
      "constant": true
    },
    {
      "inputs": [
        {
          "internalType": "string",
          "name": "property_id",
          "type": "string"
        },
        {
          "internalType": "enum TrustedPropertyListing.PropertyType",
          "name": "propertyType",
          "type": "uint8"
        },
        {
          "internalType": "bytes8",
          "name": "unit_number",
          "type": "bytes8"
        },
        {
          "internalType": "bytes6",
          "name": "pincode",
          "type": "bytes6"
        },
        {
          "internalType": "string",
          "name": "location",
          "type": "string"
        },
        {
          "internalType": "enum TrustedPropertyListing.NumberOf",
          "name": "rooms",
          "type": "uint8"
        },
        {
          "internalType": "enum TrustedPropertyListing.NumberOf",
          "name": "bathrooms",
          "type": "uint8"
        },
        {
          "internalType": "enum TrustedPropertyListing.NumberOf",
          "name": "parking",
          "type": "uint8"
        },
        {
          "internalType": "uint256",
          "name": "initialAvailableDate",
          "type": "uint256"
        }
      ],
      "name": "addProperty",
      "outputs": [],
      "stateMutability": "nonpayable",
      "type": "function"
    },
    {
      "inputs": [
        {
          "internalType": "string",
          "name": "property_id",
          "type": "string"
        },
        {
          "internalType": "address",
          "name": "originalOwner",
          "type": "address"
        },
        {
          "internalType": "enum TrustedPropertyListing.PropertyType",
          "name": "propertyType",
          "type": "uint8"
        },
        {
          "internalType": "bytes8",
          "name": "unit_number",
          "type": "bytes8"
        },
        {
          "internalType": "bytes6",
          "name": "pincode",
          "type": "bytes6"
        },
        {
          "internalType": "string",
          "name": "location",
          "type": "string"
        },
        {
          "internalType": "enum TrustedPropertyListing.NumberOf",
          "name": "rooms",
          "type": "uint8"
        },
        {
          "internalType": "enum TrustedPropertyListing.NumberOf",
          "name": "bathrooms",
          "type": "uint8"
        },
        {
          "internalType": "enum TrustedPropertyListing.NumberOf",
          "name": "parking",
          "type": "uint8"
        },
        {
          "internalType": "uint256",
          "name": "initialAvailableDate",
          "type": "uint256"
        }
      ],
      "name": "addPropertyOnBehalfOfOwner",
      "outputs": [],
      "stateMutability": "nonpayable",
      "type": "function"
    },
    {
      "inputs": [],
      "name": "admin",
      "outputs": [
        {
          "internalType": "address payable",
          "name": "",
          "type": "address"
        }
      ],
      "stateMutability": "view",
      "type": "function",
      "constant": true
    },
    {
      "inputs": [],
      "name": "contractTransactionFee",
      "outputs": [
        {
          "internalType": "uint256",
          "name": "",
          "type": "uint256"
        }
      ],
      "stateMutability": "view",
      "type": "function",
      "constant": true
    },
    {
      "inputs": [
        {
          "internalType": "string",
          "name": "property_id",
          "type": "string"
        }
      ],
      "name": "deactivateProperty",
      "outputs": [
        {
          "internalType": "bool",
          "name": "",
          "type": "bool"
        }
      ],
      "stateMutability": "nonpayable",
      "type": "function"
    },
    {
      "inputs": [
        {
          "internalType": "string",
          "name": "property_id",
          "type": "string"
        }
      ],
      "name": "getProperty",
      "outputs": [
        {
          "components": [
            {
              "internalType": "bool",
              "name": "isActive",
              "type": "bool"
            },
            {
              "internalType": "bool",
              "name": "isAvailable",
              "type": "bool"
            },
            {
              "internalType": "enum TrustedPropertyListing.PropertyType",
              "name": "propertyType",
              "type": "uint8"
            },
            {
              "internalType": "bytes8",
              "name": "unit_number",
              "type": "bytes8"
            },
            {
              "internalType": "bytes6",
              "name": "pincode",
              "type": "bytes6"
            },
            {
              "internalType": "string",
              "name": "location",
              "type": "string"
            },
            {
              "internalType": "enum TrustedPropertyListing.NumberOf",
              "name": "rooms",
              "type": "uint8"
            },
            {
              "internalType": "enum TrustedPropertyListing.NumberOf",
              "name": "bathrooms",
              "type": "uint8"
            },
            {
              "internalType": "enum TrustedPropertyListing.NumberOf",
              "name": "parking",
              "type": "uint8"
            },
            {
              "internalType": "address",
              "name": "originalOwner",
              "type": "address"
            },
            {
              "internalType": "uint256",
              "name": "currentRent",
              "type": "uint256"
            },
            {
              "internalType": "uint256",
              "name": "currentSecurity",
              "type": "uint256"
            }
          ],
          "internalType": "struct TrustedPropertyListing.PropertyView",
          "name": "",
          "type": "tuple"
        }
      ],
      "stateMutability": "view",
      "type": "function",
      "constant": true
    },
    {
      "inputs": [
        {
          "internalType": "string",
          "name": "property_id",
          "type": "string"
        }
      ],
      "name": "isPropertyAvailable",
      "outputs": [
        {
          "internalType": "bool",
          "name": "",
          "type": "bool"
        }
      ],
      "stateMutability": "view",
      "type": "function",
      "constant": true
    },
    {
      "inputs": [],
      "name": "propertyCount",
      "outputs": [
        {
          "internalType": "uint32",
          "name": "",
          "type": "uint32"
        }
      ],
      "stateMutability": "view",
      "type": "function",
      "constant": true
    },
    {
      "inputs": [
        {
          "internalType": "string",
          "name": "property_id",
          "type": "string"
        },
        {
          "internalType": "uint256",
          "name": "security_deposit",
          "type": "uint256"
        },
        {
          "internalType": "uint256",
          "name": "rent_amount",
          "type": "uint256"
        }
      ],
      "name": "setRent",
      "outputs": [
        {
          "internalType": "bool",
          "name": "",
          "type": "bool"
        }
      ],
      "stateMutability": "nonpayable",
      "type": "function"
    },
    {
      "inputs": [
        {
          "internalType": "uint256",
          "name": "contract_id",
          "type": "uint256"
        },
        {
          "internalType": "string",
          "name": "property_id",
          "type": "string"
        },
        {
          "internalType": "address",
          "name": "tenant",
          "type": "address"
        },
        {
          "internalType": "uint8",
          "name": "duration",
          "type": "uint8"
        },
        {
          "internalType": "bytes10",
          "name": "start_date",
          "type": "bytes10"
        }
      ],
      "name": "initializeRentContract",
      "outputs": [],
      "stateMutability": "nonpayable",
      "type": "function"
    },
    {
      "inputs": [
        {
          "internalType": "uint256",
          "name": "contract_id",
          "type": "uint256"
        }
      ],
      "name": "depositSecurity",
      "outputs": [],
      "stateMutability": "payable",
      "type": "function",
      "payable": true
    },
    {
      "inputs": [
        {
          "internalType": "uint256",
          "name": "contract_id",
          "type": "uint256"
        }
      ],
      "name": "payRent",
      "outputs": [],
      "stateMutability": "payable",
      "type": "function",
      "payable": true
    },
    {
      "inputs": [],
      "name": "withdraw",
      "outputs": [
        {
          "internalType": "bool",
          "name": "",
          "type": "bool"
        }
      ],
      "stateMutability": "nonpayable",
      "type": "function"
    },
    {
      "inputs": [],
      "name": "getPendingFunds",
      "outputs": [
        {
          "internalType": "uint256",
          "name": "",
          "type": "uint256"
        }
      ],
      "stateMutability": "view",
      "type": "function",
      "constant": true
    },
    {
      "inputs": [
        {
          "internalType": "uint256",
          "name": "contract_id",
          "type": "uint256"
        }
      ],
      "name": "getContractDetails",
      "outputs": [
        {
          "components": [
            {
              "internalType": "bool",
              "name": "doesExist",
              "type": "bool"
            },
            {
              "internalType": "string",
              "name": "property_id",
              "type": "string"
            },
            {
              "internalType": "enum TrustedPropertiesBasicRentContract.AgreementStatus",
              "name": "status",
              "type": "uint8"
            },
            {
              "internalType": "address",
              "name": "owner",
              "type": "address"
            },
            {
              "internalType": "address",
              "name": "tenant",
              "type": "address"
            },
            {
              "internalType": "uint256",
              "name": "security_deposit",
              "type": "uint256"
            },
            {
              "internalType": "uint256",
              "name": "rent_amount",
              "type": "uint256"
            },
            {
              "internalType": "uint8",
              "name": "duration",
              "type": "uint8"
            },
            {
              "internalType": "uint8",
              "name": "remaining_payments",
              "type": "uint8"
            },
            {
              "internalType": "uint256",
              "name": "security_deposit_balance",
              "type": "uint256"
            },
            {
              "internalType": "bytes10",
              "name": "start_date",
              "type": "bytes10"
            },
            {
              "internalType": "uint8",
              "name": "duration_extension_request",
              "type": "uint8"
            },
            {
              "internalType": "uint256",
              "name": "createdAt",
              "type": "uint256"
            }
          ],
          "internalType": "struct TrustedPropertiesBasicRentContract.RentContract",
          "name": "",
          "type": "tuple"
        }
      ],
      "stateMutability": "view",
      "type": "function",
      "constant": true
    },
    {
      "inputs": [
        {
          "internalType": "uint256",
          "name": "contract_id",
          "type": "uint256"
        },
        {
          "internalType": "uint8",
          "name": "extension_duration",
          "type": "uint8"
        }
      ],
      "name": "extendContractDurationRequest",
      "outputs": [],
      "stateMutability": "nonpayable",
      "type": "function"
    },
    {
      "inputs": [
        {
          "internalType": "uint256",
          "name": "contract_id",
          "type": "uint256"
        },
        {
          "internalType": "uint8",
          "name": "extension_duration",
          "type": "uint8"
        }
      ],
      "name": "extendContractDurationConfirm",
      "outputs": [],
      "stateMutability": "nonpayable",
      "type": "function"
    }
  ],
  "bytecode": "0x60806040526000600360006101000a81548163ffffffff021916908363ffffffff1602179055506000600360046101000a81548163ffffffff021916908363ffffffff1602179055503480156200005557600080fd5b5060405162004e4838038062004e4883398181016040528101906200007b9190620000e1565b33600360086101000a81548173ffffffffffffffffffffffffffffffffffffffff021916908373ffffffffffffffffffffffffffffffffffffffff16021790555080600481905550506200013c565b600081519050620000db8162000122565b92915050565b600060208284031215620000fa57620000f96200011d565b5b60006200010a84828501620000ca565b91505092915050565b6000819050919050565b600080fd5b6200012d8162000113565b81146200013957600080fd5b50565b614cfc806200014c6000396000f3fe608060405260043610610131576000357c0100000000000000000000000000000000000000000000000000000000900480636c5a2f37116100bd578063d328c0f611610081578063d328c0f6146103d5578063d9e8843f14610412578063de504d451461042e578063f851a44014610457578063fc125cf21461048257610131565b80636c5a2f37146102dc578063a6580e0614610319578063ab331a3414610344578063ae1172c514610381578063c361a335146103aa57610131565b806324c1c0c91161010457806324c1c0c9146101e15780633ccfd60b1461020c578063444b1bfb146102375780634bcd664a146102625780634d6d6a9c1461029f57610131565b80630248632614610136578063123662641461015f57806322aeddfd1461019c57806323cb873e146101b8575b600080fd5b34801561014257600080fd5b5061015d60048036038101906101589190613670565b6104ab565b005b34801561016b57600080fd5b50610186600480360381019061018191906132db565b6106ae565b6040516101939190613e41565b60405180910390f35b6101b660048036038101906101b191906135ac565b610854565b005b3480156101c457600080fd5b506101df60048036038101906101da919061343b565b610bff565b005b3480156101ed57600080fd5b506101f6610c1c565b604051610203919061416c565b60405180910390f35b34801561021857600080fd5b50610221610c63565b60405161022e9190613e41565b60405180910390f35b34801561024357600080fd5b5061024c610d87565b604051610259919061416c565b60405180910390f35b34801561026e57600080fd5b506102896004803603810190610284919061353d565b610d8d565b6040516102969190613e41565b60405180910390f35b3480156102ab57600080fd5b506102c660048036038101906102c191906135ac565b610f4f565b6040516102d3919061414a565b60405180910390f35b3480156102e857600080fd5b5061030360048036038101906102fe91906132db565b61140d565b6040516103109190613e41565b60405180910390f35b34801561032557600080fd5b5061032e6114eb565b60405161033b9190614210565b60405180910390f35b34801561035057600080fd5b5061036b600480360381019061036691906132db565b611501565b6040516103789190614128565b60405180910390f35b34801561038d57600080fd5b506103a860048036038101906103a39190613670565b61197d565b005b3480156103b657600080fd5b506103bf611c80565b6040516103cc9190614210565b60405180910390f35b3480156103e157600080fd5b506103fc60048036038101906103f791906132db565b611c96565b6040516104099190613e41565b60405180910390f35b61042c600480360381019061042791906135ac565b611eae565b005b34801561043a57600080fd5b5061045560048036038101906104509190613324565b6123e9565b005b34801561046357600080fd5b5061046c6129b3565b6040516104799190613df6565b60405180910390f35b34801561048e57600080fd5b506104a960048036038101906104a491906135d9565b6129d9565b005b816005600082815260200190815260200160002060000160009054906101000a900460ff1661050f576040517f08c379a000000000000000000000000000000000000000000000000000000000815260040161050690613fe8565b60405180910390fd5b826005600082815260200190815260200160002060030160009054906101000a900473ffffffffffffffffffffffffffffffffffffffff1673ffffffffffffffffffffffffffffffffffffffff163373ffffffffffffffffffffffffffffffffffffffff16146105b4576040517f08c379a00000000000000000000000000000000000000000000000000000000081526004016105ab90614008565b60405180910390fd5b83600260048111156105c9576105c8614658565b5b6005600083815260200190815260200160002060020160009054906101000a900460ff1660048111156105ff576105fe614658565b5b1461063f576040517f08c379a000000000000000000000000000000000000000000000000000000000815260040161063690613ee8565b60405180910390fd5b8360056000878152602001908152602001600020600801600a6101000a81548160ff021916908360ff1602179055507f5c01f805177517491807e47a4f73a8c49683cce2883f42326e2fef08e64eaff0858560405161069f9291906141e7565b60405180910390a15050505050565b6000816000816040516106c19190613dc8565b908152602001604051809103902060010160019054906101000a900460ff1661071f576040517f08c379a000000000000000000000000000000000000000000000000000000000815260040161071690613f68565b60405180910390fd5b823373ffffffffffffffffffffffffffffffffffffffff166000826040516107479190613dc8565b908152602001604051809103902060050160009054906101000a900473ffffffffffffffffffffffffffffffffffffffff1673ffffffffffffffffffffffffffffffffffffffff16146107cf576040517f08c379a00000000000000000000000000000000000000000000000000000000081526004016107c690614068565b60405180910390fd5b600080856040516107e09190613dc8565b908152602001604051809103902060010160016101000a81548160ff0219169083151502179055506003600481819054906101000a900463ffffffff168092919061082a9061456f565b91906101000a81548163ffffffff021916908363ffffffff16021790555050600192505050919050565b806005600082815260200190815260200160002060000160009054906101000a900460ff166108b8576040517f08c379a00000000000000000000000000000000000000000000000000000000081526004016108af90613fe8565b60405180910390fd5b816005600082815260200190815260200160002060030160009054906101000a900473ffffffffffffffffffffffffffffffffffffffff1673ffffffffffffffffffffffffffffffffffffffff163373ffffffffffffffffffffffffffffffffffffffff161461095d576040517f08c379a000000000000000000000000000000000000000000000000000000000815260040161095490614008565b60405180910390fd5b6001600481111561097157610970614658565b5b6005600085815260200190815260200160002060020160009054906101000a900460ff1660048111156109a7576109a6614658565b5b146109e7576040517f08c379a00000000000000000000000000000000000000000000000000000000081526004016109de90614088565b60405180910390fd5b6005600084815260200190815260200160002060040154341015610a40576040517f08c379a0000000000000000000000000000000000000000000000000000000008152600401610a3790613f88565b60405180910390fd5b60006005600085815260200190815260200160002060040154905060045481610a69919061435b565b600560008681526020019081526020016000206007018190555060026005600086815260200190815260200160002060020160006101000a81548160ff02191690836004811115610abd57610abc614658565b5b021790555080341115610b62578034610ad6919061435b565b600660006005600088815260200190815260200160002060030160009054906101000a900473ffffffffffffffffffffffffffffffffffffffff1673ffffffffffffffffffffffffffffffffffffffff1673ffffffffffffffffffffffffffffffffffffffff1681526020019081526020016000206000828254610b5a91906142ce565b925050819055505b7fe1a7d82c5ff4c84d14fafc7aa528bf059a3eeaa60243a91d9de7d807391ad898846005600087815260200190815260200160002060040154600454604051610bad939291906141b0565b60405180910390a17f8069aa966ef8a1ca8b35da1d844e11f439d34560e52e43fd9b1ce455dc771724848234610be3919061435b565b604051610bf1929190614187565b60405180910390a150505050565b610c1189338a8a8a8a8a8a8a8a6123e9565b505050505050505050565b6000600660003373ffffffffffffffffffffffffffffffffffffffff1673ffffffffffffffffffffffffffffffffffffffff16815260200190815260200160002054905090565b600080600660003373ffffffffffffffffffffffffffffffffffffffff1673ffffffffffffffffffffffffffffffffffffffff1681526020019081526020016000205490506000811115610d7e576000600660003373ffffffffffffffffffffffffffffffffffffffff1673ffffffffffffffffffffffffffffffffffffffff168152602001908152602001600020819055503373ffffffffffffffffffffffffffffffffffffffff166108fc829081150290604051600060405180830381858888f19350505050610d7d5780600660003373ffffffffffffffffffffffffffffffffffffffff1673ffffffffffffffffffffffffffffffffffffffff168152602001908152602001600020819055506000915050610d84565b5b60019150505b90565b60045481565b600083600081604051610da09190613dc8565b908152602001604051809103902060010160019054906101000a900460ff16610dfe576040517f08c379a0000000000000000000000000000000000000000000000000000000008152600401610df590613f68565b60405180910390fd5b843373ffffffffffffffffffffffffffffffffffffffff16600082604051610e269190613dc8565b908152602001604051809103902060050160009054906101000a900473ffffffffffffffffffffffffffffffffffffffff1673ffffffffffffffffffffffffffffffffffffffff1614610eae576040517f08c379a0000000000000000000000000000000000000000000000000000000008152600401610ea590614068565b60405180910390fd5b6001600087604051610ec09190613dc8565b908152602001604051809103902060010160016101000a81548160ff021916908315150217905550604051806060016040528086815260200185815260200142815250600187604051610f139190613dc8565b90815260200160405180910390206000820151816000015560208201518160010155604082015181600201559050506001925050509392505050565b610f57612f5b565b816005600082815260200190815260200160002060000160009054906101000a900460ff16610fbb576040517f08c379a0000000000000000000000000000000000000000000000000000000008152600401610fb290613fe8565b60405180910390fd5b6005600084815260200190815260200160002060020160019054906101000a900473ffffffffffffffffffffffffffffffffffffffff1673ffffffffffffffffffffffffffffffffffffffff163373ffffffffffffffffffffffffffffffffffffffff16148061108c57506005600084815260200190815260200160002060030160009054906101000a900473ffffffffffffffffffffffffffffffffffffffff1673ffffffffffffffffffffffffffffffffffffffff163373ffffffffffffffffffffffffffffffffffffffff16145b806110e45750600360089054906101000a900473ffffffffffffffffffffffffffffffffffffffff1673ffffffffffffffffffffffffffffffffffffffff163373ffffffffffffffffffffffffffffffffffffffff16145b611123576040517f08c379a000000000000000000000000000000000000000000000000000000000815260040161111a906140a8565b60405180910390fd5b604051806101a0016040528060011515815260200160056000868152602001908152602001600020600101805461115990614599565b80601f016020809104026020016040519081016040528092919081815260200182805461118590614599565b80156111d25780601f106111a7576101008083540402835291602001916111d2565b820191906000526020600020905b8154815290600101906020018083116111b557829003601f168201915b505050505081526020016005600086815260200190815260200160002060020160009054906101000a900460ff16600481111561121257611211614658565b5b81526020016005600086815260200190815260200160002060020160019054906101000a900473ffffffffffffffffffffffffffffffffffffffff1673ffffffffffffffffffffffffffffffffffffffff1681526020016005600086815260200190815260200160002060030160009054906101000a900473ffffffffffffffffffffffffffffffffffffffff1673ffffffffffffffffffffffffffffffffffffffff16815260200160056000868152602001908152602001600020600401548152602001600560008681526020019081526020016000206005015481526020016005600086815260200190815260200160002060060160009054906101000a900460ff1660ff1681526020016005600086815260200190815260200160002060060160019054906101000a900460ff1660ff168152602001600560008681526020019081526020016000206007015481526020016005600086815260200190815260200160002060080160009054906101000a90047601000000000000000000000000000000000000000000000275ffffffffffffffffffffffffffffffffffffffffffff1916815260200160056000868152602001908152602001600020600801600a9054906101000a900460ff1660ff1681526020016005600086815260200190815260200160002060090154815250915050919050565b6000808260405161141e9190613dc8565b908152602001604051809103902060010160019054906101000a900460ff1680156114b75750600073ffffffffffffffffffffffffffffffffffffffff1660008360405161146c9190613dc8565b908152602001604051809103902060060160009054906101000a900473ffffffffffffffffffffffffffffffffffffffff1673ffffffffffffffffffffffffffffffffffffffff1614155b80156114e4575060006001836040516114d09190613dc8565b908152602001604051809103902060010154115b9050919050565b600360049054906101000a900463ffffffff1681565b611509613025565b8160008160405161151a9190613dc8565b908152602001604051809103902060010160009054906101000a900460ff16611578576040517f08c379a000000000000000000000000000000000000000000000000000000000815260040161156f90613fc8565b60405180910390fd5b6040518061018001604052806000856040516115949190613dc8565b908152602001604051809103902060010160019054906101000a900460ff1615158152602001600073ffffffffffffffffffffffffffffffffffffffff166000866040516115e29190613dc8565b908152602001604051809103902060060160009054906101000a900473ffffffffffffffffffffffffffffffffffffffff1673ffffffffffffffffffffffffffffffffffffffff161415151581526020016000856040516116439190613dc8565b908152602001604051809103902060010160029054906101000a900460ff16600581111561167457611673614658565b5b81526020016000856040516116899190613dc8565b908152602001604051809103902060010160039054906101000a900478010000000000000000000000000000000000000000000000000277ffffffffffffffffffffffffffffffffffffffffffffffff191681526020016000856040516116f09190613dc8565b9081526020016040518091039020600101600b9054906101000a90047a0100000000000000000000000000000000000000000000000000000279ffffffffffffffffffffffffffffffffffffffffffffffffffff1916815260200160008560405161175b9190613dc8565b9081526020016040518091039020600201805461177790614599565b80601f01602080910402602001604051908101604052809291908181526020018280546117a390614599565b80156117f05780601f106117c5576101008083540402835291602001916117f0565b820191906000526020600020905b8154815290600101906020018083116117d357829003601f168201915b5050505050815260200160008560405161180a9190613dc8565b908152602001604051809103902060030160009054906101000a900460ff16600681111561183b5761183a614658565b5b81526020016000856040516118509190613dc8565b908152602001604051809103902060030160019054906101000a900460ff16600681111561188157611880614658565b5b81526020016000856040516118969190613dc8565b908152602001604051809103902060030160029054906101000a900460ff1660068111156118c7576118c6614658565b5b81526020016000856040516118dc9190613dc8565b908152602001604051809103902060050160009054906101000a900473ffffffffffffffffffffffffffffffffffffffff1673ffffffffffffffffffffffffffffffffffffffff1681526020016001856040516119399190613dc8565b90815260200160405180910390206001015481526020016001856040516119609190613dc8565b908152602001604051809103902060000154815250915050919050565b816005600082815260200190815260200160002060000160009054906101000a900460ff166119e1576040517f08c379a00000000000000000000000000000000000000000000000000000000081526004016119d890613fe8565b60405180910390fd5b826005600082815260200190815260200160002060020160019054906101000a900473ffffffffffffffffffffffffffffffffffffffff1673ffffffffffffffffffffffffffffffffffffffff163373ffffffffffffffffffffffffffffffffffffffff1614611a86576040517f08c379a0000000000000000000000000000000000000000000000000000000008152600401611a7d90614108565b60405180910390fd5b8360026004811115611a9b57611a9a614658565b5b6005600083815260200190815260200160002060020160009054906101000a900460ff166004811115611ad157611ad0614658565b5b14611b11576040517f08c379a0000000000000000000000000000000000000000000000000000000008152600401611b0890613ee8565b60405180910390fd5b8360ff1660056000878152602001908152602001600020600801600a9054906101000a900460ff1660ff1614611b7c576040517f08c379a0000000000000000000000000000000000000000000000000000000008152600401611b73906140c8565b60405180910390fd5b836005600087815260200190815260200160002060060160008282829054906101000a900460ff16611bae9190614324565b92506101000a81548160ff021916908360ff160217905550836005600087815260200190815260200160002060060160018282829054906101000a900460ff16611bf89190614324565b92506101000a81548160ff021916908360ff160217905550600060056000878152602001908152602001600020600801600a6101000a81548160ff021916908360ff1602179055507fdba1990f322102587a9871ad96ce3f3827b41dd9517e0ba3413195317db86c738585604051611c719291906141e7565b60405180910390a15050505050565b600360009054906101000a900463ffffffff1681565b600081600081604051611ca99190613dc8565b908152602001604051809103902060010160009054906101000a900460ff16611d07576040517f08c379a0000000000000000000000000000000000000000000000000000000008152600401611cfe90613fc8565b60405180910390fd5b82600081604051611d189190613dc8565b908152602001604051809103902060010160019054906101000a900460ff1615611d77576040517f08c379a0000000000000000000000000000000000000000000000000000000008152600401611d6e90613f48565b60405180910390fd5b833373ffffffffffffffffffffffffffffffffffffffff16600082604051611d9f9190613dc8565b908152602001604051809103902060050160009054906101000a900473ffffffffffffffffffffffffffffffffffffffff1673ffffffffffffffffffffffffffffffffffffffff1614611e27576040517f08c379a0000000000000000000000000000000000000000000000000000000008152600401611e1e90614068565b60405180910390fd5b6001600086604051611e399190613dc8565b908152602001604051809103902060010160016101000a81548160ff0219169083151502179055506003600481819054906101000a900463ffffffff1680929190611e83906145fc565b91906101000a81548163ffffffff021916908363ffffffff1602179055505060019350505050919050565b806005600082815260200190815260200160002060000160009054906101000a900460ff16611f12576040517f08c379a0000000000000000000000000000000000000000000000000000000008152600401611f0990613fe8565b60405180910390fd5b816005600082815260200190815260200160002060030160009054906101000a900473ffffffffffffffffffffffffffffffffffffffff1673ffffffffffffffffffffffffffffffffffffffff163373ffffffffffffffffffffffffffffffffffffffff1614611fb7576040517f08c379a0000000000000000000000000000000000000000000000000000000008152600401611fae90614008565b60405180910390fd5b8260026004811115611fcc57611fcb614658565b5b6005600083815260200190815260200160002060020160009054906101000a900460ff16600481111561200257612001614658565b5b14612042576040517f08c379a000000000000000000000000000000000000000000000000000000000815260040161203990613ee8565b60405180910390fd5b600560008581526020019081526020016000206005015434101561209b576040517f08c379a000000000000000000000000000000000000000000000000000000000815260040161209290614048565b60405180910390fd5b60016005600086815260200190815260200160002060060160018282829054906101000a900460ff166120ce919061438f565b92506101000a81548160ff021916908360ff16021790555060006005600086815260200190815260200160002060060160019054906101000a900460ff1660ff1614156121f75760036005600086815260200190815260200160002060020160006101000a81548160ff0219169083600481111561214f5761214e614658565b5b02179055506005600085815260200190815260200160002060070154600660006005600088815260200190815260200160002060030160009054906101000a900473ffffffffffffffffffffffffffffffffffffffff1673ffffffffffffffffffffffffffffffffffffffff1673ffffffffffffffffffffffffffffffffffffffff16815260200190815260200160002060008282546121ef91906142ce565b925050819055505b60006005600086815260200190815260200160002060050154905060045481612220919061435b565b600660006005600089815260200190815260200160002060020160019054906101000a900473ffffffffffffffffffffffffffffffffffffffff1673ffffffffffffffffffffffffffffffffffffffff1673ffffffffffffffffffffffffffffffffffffffff16815260200190815260200160002060008282546122a491906142ce565b925050819055508034111561234b5780346122bf919061435b565b600660006005600089815260200190815260200160002060030160009054906101000a900473ffffffffffffffffffffffffffffffffffffffff1673ffffffffffffffffffffffffffffffffffffffff1673ffffffffffffffffffffffffffffffffffffffff168152602001908152602001600020600082825461234391906142ce565b925050819055505b7fa62c35dfc0ff11d3713608ebcdc5c5d1952c7702620f2c46c22950f7b70d5797856005600088815260200190815260200160002060040154600454604051612396939291906141b0565b60405180910390a17f8069aa966ef8a1ca8b35da1d844e11f439d34560e52e43fd9b1ce455dc7717248582346123cc919061435b565b6040516123da929190614187565b60405180910390a15050505050565b896000816040516123fa9190613dc8565b908152602001604051809103902060010160009054906101000a900460ff1615612459576040517f08c379a0000000000000000000000000000000000000000000000000000000008152600401612450906140e8565b60405180910390fd5b600073ffffffffffffffffffffffffffffffffffffffff168a73ffffffffffffffffffffffffffffffffffffffff1614156124c9576040517f08c379a00000000000000000000000000000000000000000000000000000000081526004016124c090613ec8565b60405180910390fd5b6000600260006124db8c8c8c8c612f22565b81526020019081526020016000206040516124f69190613ddf565b908152602001604051809103902060010160009054906101000a900460ff1615612555576040517f08c379a000000000000000000000000000000000000000000000000000000000815260040161254c90613ea8565b60405180910390fd5b604051806101c001604052808c81526020016001151581526020016001151581526020018a600581111561258c5761258b614658565b5b81526020018977ffffffffffffffffffffffffffffffffffffffffffffffff191681526020018879ffffffffffffffffffffffffffffffffffffffffffffffffffff191681526020018781526020018660068111156125ee576125ed614658565b5b815260200185600681111561260657612605614658565b5b815260200184600681111561261e5761261d614658565b5b81526020018381526020018b73ffffffffffffffffffffffffffffffffffffffff168152602001600073ffffffffffffffffffffffffffffffffffffffff1681526020014281525060008c6040516126769190613dc8565b908152602001604051809103902060008201518160000190805190602001906126a0929190613120565b5060208201518160010160006101000a81548160ff02191690831515021790555060408201518160010160016101000a81548160ff02191690831515021790555060608201518160010160026101000a81548160ff0219169083600581111561270c5761270b614658565b5b021790555060808201518160010160036101000a81548167ffffffffffffffff021916908378010000000000000000000000000000000000000000000000009004021790555060a082015181600101600b6101000a81548165ffffffffffff02191690837a0100000000000000000000000000000000000000000000000000009004021790555060c08201518160020190805190602001906127af929190613120565b5060e08201518160030160006101000a81548160ff021916908360068111156127db576127da614658565b5b02179055506101008201518160030160016101000a81548160ff0219169083600681111561280c5761280b614658565b5b02179055506101208201518160030160026101000a81548160ff0219169083600681111561283d5761283c614658565b5b021790555061014082015181600401556101608201518160050160006101000a81548173ffffffffffffffffffffffffffffffffffffffff021916908373ffffffffffffffffffffffffffffffffffffffff1602179055506101808201518160060160006101000a81548173ffffffffffffffffffffffffffffffffffffffff021916908373ffffffffffffffffffffffffffffffffffffffff1602179055506101a082015181600701559050506003600081819054906101000a900463ffffffff168092919061290d906145fc565b91906101000a81548163ffffffff021916908363ffffffff160217905550506003600481819054906101000a900463ffffffff168092919061294e906145fc565b91906101000a81548163ffffffff021916908363ffffffff160217905550507fc15ed0866d26bb9c29e947585dfb7d5ce1bef33ccf31dd72b3b65df960eb02458a8c60405161299e929190613e11565b60405180910390a15050505050505050505050565b600360089054906101000a900473ffffffffffffffffffffffffffffffffffffffff1681565b833373ffffffffffffffffffffffffffffffffffffffff16600082604051612a019190613dc8565b908152602001604051809103902060050160009054906101000a900473ffffffffffffffffffffffffffffffffffffffff1673ffffffffffffffffffffffffffffffffffffffff1614612a89576040517f08c379a0000000000000000000000000000000000000000000000000000000008152600401612a8090614068565b60405180910390fd5b856005600082815260200190815260200160002060000160009054906101000a900460ff1615612aee576040517f08c379a0000000000000000000000000000000000000000000000000000000008152600401612ae590613f08565b60405180910390fd5b612af78661140d565b612b36576040517f08c379a0000000000000000000000000000000000000000000000000000000008152600401612b2d90613fa8565b60405180910390fd5b600454600187604051612b499190613dc8565b90815260200160405180910390206001015411612b9b576040517f08c379a0000000000000000000000000000000000000000000000000000000008152600401612b9290614028565b60405180910390fd5b600454600187604051612bae9190613dc8565b90815260200160405180910390206000015411612c00576040517f08c379a0000000000000000000000000000000000000000000000000000000008152600401612bf790613f28565b60405180910390fd5b604051806101a0016040528060011515815260200187815260200160016004811115612c2f57612c2e614658565b5b81526020013373ffffffffffffffffffffffffffffffffffffffff1681526020018673ffffffffffffffffffffffffffffffffffffffff168152602001600188604051612c7c9190613dc8565b9081526020016040518091039020600001548152602001600188604051612ca39190613dc8565b90815260200160405180910390206001015481526020018560ff1681526020018560ff168152602001600081526020018475ffffffffffffffffffffffffffffffffffffffffffff19168152602001600060ff168152602001428152506005600089815260200190815260200160002060008201518160000160006101000a81548160ff0219169083151502179055506020820151816001019080519060200190612d4f929190613120565b5060408201518160020160006101000a81548160ff02191690836004811115612d7b57612d7a614658565b5b021790555060608201518160020160016101000a81548173ffffffffffffffffffffffffffffffffffffffff021916908373ffffffffffffffffffffffffffffffffffffffff16021790555060808201518160030160006101000a81548173ffffffffffffffffffffffffffffffffffffffff021916908373ffffffffffffffffffffffffffffffffffffffff16021790555060a0820151816004015560c0820151816005015560e08201518160060160006101000a81548160ff021916908360ff1602179055506101008201518160060160016101000a81548160ff021916908360ff16021790555061012082015181600701556101408201518160080160006101000a81548169ffffffffffffffffffff02191690837601000000000000000000000000000000000000000000009004021790555061016082015181600801600a6101000a81548160ff021916908360ff16021790555061018082015181600901559050507fac210b01e42cafdce02d0cd5dc41f3fe6a7245262f52a1cdf2a2eea60dada94087604051612f11919061416c565b60405180910390a150505050505050565b600084848484604051602001612f3b9493929190613e5c565b604051602081830303815290604052805190602001209050949350505050565b604051806101a001604052806000151581526020016060815260200160006004811115612f8b57612f8a614658565b5b8152602001600073ffffffffffffffffffffffffffffffffffffffff168152602001600073ffffffffffffffffffffffffffffffffffffffff1681526020016000815260200160008152602001600060ff168152602001600060ff16815260200160008152602001600075ffffffffffffffffffffffffffffffffffffffffffff19168152602001600060ff168152602001600081525090565b6040518061018001604052806000151581526020016000151581526020016000600581111561305757613056614658565b5b8152602001600077ffffffffffffffffffffffffffffffffffffffffffffffff19168152602001600079ffffffffffffffffffffffffffffffffffffffffffffffffffff1916815260200160608152602001600060068111156130bd576130bc614658565b5b8152602001600060068111156130d6576130d5614658565b5b8152602001600060068111156130ef576130ee614658565b5b8152602001600073ffffffffffffffffffffffffffffffffffffffff16815260200160008152602001600081525090565b82805461312c90614599565b90600052602060002090601f01602090048101928261314e5760008555613195565b82601f1061316757805160ff1916838001178555613195565b82800160010185558215613195579182015b82811115613194578251825591602001919060010190613179565b5b5090506131a291906131a6565b5090565b5b808211156131bf5760008160009055506001016131a7565b5090565b60006131d66131d184614250565b61422b565b9050828152602081018484840111156131f2576131f16146ea565b5b6131fd84828561452d565b509392505050565b60008135905061321481614c1c565b92915050565b60008135905061322981614c33565b92915050565b60008135905061323e81614c4a565b92915050565b60008135905061325381614c61565b92915050565b60008135905061326881614c78565b92915050565b60008135905061327d81614c88565b92915050565b600082601f830112613298576132976146e5565b5b81356132a88482602086016131c3565b91505092915050565b6000813590506132c081614c98565b92915050565b6000813590506132d581614caf565b92915050565b6000602082840312156132f1576132f06146f4565b5b600082013567ffffffffffffffff81111561330f5761330e6146ef565b5b61331b84828501613283565b91505092915050565b6000806000806000806000806000806101408b8d031215613348576133476146f4565b5b60008b013567ffffffffffffffff811115613366576133656146ef565b5b6133728d828e01613283565b9a505060206133838d828e01613205565b99505060406133948d828e0161326e565b98505060606133a58d828e01613244565b97505060806133b68d828e0161322f565b96505060a08b013567ffffffffffffffff8111156133d7576133d66146ef565b5b6133e38d828e01613283565b95505060c06133f48d828e01613259565b94505060e06134058d828e01613259565b9350506101006134178d828e01613259565b9250506101206134298d828e016132b1565b9150509295989b9194979a5092959850565b60008060008060008060008060006101208a8c03121561345e5761345d6146f4565b5b60008a013567ffffffffffffffff81111561347c5761347b6146ef565b5b6134888c828d01613283565b99505060206134998c828d0161326e565b98505060406134aa8c828d01613244565b97505060606134bb8c828d0161322f565b96505060808a013567ffffffffffffffff8111156134dc576134db6146ef565b5b6134e88c828d01613283565b95505060a06134f98c828d01613259565b94505060c061350a8c828d01613259565b93505060e061351b8c828d01613259565b92505061010061352d8c828d016132b1565b9150509295985092959850929598565b600080600060608486031215613556576135556146f4565b5b600084013567ffffffffffffffff811115613574576135736146ef565b5b61358086828701613283565b9350506020613591868287016132b1565b92505060406135a2868287016132b1565b9150509250925092565b6000602082840312156135c2576135c16146f4565b5b60006135d0848285016132b1565b91505092915050565b600080600080600060a086880312156135f5576135f46146f4565b5b6000613603888289016132b1565b955050602086013567ffffffffffffffff811115613624576136236146ef565b5b61363088828901613283565b945050604061364188828901613205565b9350506060613652888289016132c6565b92505060806136638882890161321a565b9150509295509295909350565b60008060408385031215613687576136866146f4565b5b6000613695858286016132b1565b92505060206136a6858286016132c6565b9150509250929050565b6136b9816143d5565b82525050565b6136c8816143c3565b82525050565b6136d7816143c3565b82525050565b6136e6816143e7565b82525050565b6136f5816143e7565b82525050565b613704816143f3565b82525050565b6137138161441f565b82525050565b6137228161441f565b82525050565b6137318161444b565b82525050565b6137408161444b565b82525050565b61374f816144f7565b82525050565b61375e81614509565b82525050565b61376d8161451b565b82525050565b61377c8161451b565b82525050565b600061378d82614296565b61379781856142a1565b93506137a781856020860161453c565b6137b0816146f9565b840191505092915050565b60006137c682614296565b6137d081856142b2565b93506137e081856020860161453c565b6137e9816146f9565b840191505092915050565b60006137ff82614296565b61380981856142c3565b935061381981856020860161453c565b80840191505092915050565b6000815461383281614599565b61383c81866142c3565b9450600182166000811461385757600181146138685761389b565b60ff1983168652818601935061389b565b61387185614281565b60005b8381101561389357815481890152600182019150602081019050613874565b838801955050505b50505092915050565b60006138b16018836142b2565b91506138bc8261470a565b602082019050919050565b60006138d46023836142b2565b91506138df82614733565b604082019050919050565b60006138f76029836142b2565b915061390282614782565b604082019050919050565b600061391a6017836142b2565b9150613925826147d1565b602082019050919050565b600061393d6027836142b2565b9150613948826147fa565b604082019050919050565b60006139606021836142b2565b915061396b82614849565b604082019050919050565b6000613983601c836142b2565b915061398e82614898565b602082019050919050565b60006139a66024836142b2565b91506139b1826148c1565b604082019050919050565b60006139c96022836142b2565b91506139d482614910565b604082019050919050565b60006139ec6017836142b2565b91506139f78261495f565b602082019050919050565b6000613a0f6017836142b2565b9150613a1a82614988565b602082019050919050565b6000613a326030836142b2565b9150613a3d826149b1565b604082019050919050565b6000613a55601b836142b2565b9150613a6082614a00565b602082019050919050565b6000613a786018836142b2565b9150613a8382614a29565b602082019050919050565b6000613a9b601f836142b2565b9150613aa682614a52565b602082019050919050565b6000613abe601a836142b2565b9150613ac982614a7b565b602082019050919050565b6000613ae16029836142b2565b9150613aec82614aa4565b604082019050919050565b6000613b046045836142b2565b9150613b0f82614af3565b606082019050919050565b6000613b276017836142b2565b9150613b3282614b68565b602082019050919050565b6000613b4a6038836142b2565b9150613b5582614b91565b604082019050919050565b600061018083016000830151613b7960008601826136dd565b506020830151613b8c60208601826136dd565b506040830151613b9f6040860182613764565b506060830151613bb26060860182613728565b506080830151613bc5608086018261370a565b5060a083015184820360a0860152613bdd8282613782565b91505060c0830151613bf260c0860182613755565b5060e0830151613c0560e0860182613755565b50610100830151613c1a610100860182613755565b50610120830151613c2f6101208601826136bf565b50610140830151613c44610140860182613d7d565b50610160830151613c59610160860182613d7d565b508091505092915050565b60006101a083016000830151613c7d60008601826136dd565b5060208301518482036020860152613c958282613782565b9150506040830151613caa6040860182613746565b506060830151613cbd60608601826136bf565b506080830151613cd060808601826136bf565b5060a0830151613ce360a0860182613d7d565b5060c0830151613cf660c0860182613d7d565b5060e0830151613d0960e0860182613daa565b50610100830151613d1e610100860182613daa565b50610120830151613d33610120860182613d7d565b50610140830151613d486101408601826136fb565b50610160830151613d5d610160860182613daa565b50610180830151613d72610180860182613d7d565b508091505092915050565b613d86816144d0565b82525050565b613d95816144d0565b82525050565b613da4816144da565b82525050565b613db3816144ea565b82525050565b613dc2816144ea565b82525050565b6000613dd482846137f4565b915081905092915050565b6000613deb8284613825565b915081905092915050565b6000602082019050613e0b60008301846136b0565b92915050565b6000604082019050613e2660008301856136ce565b8181036020830152613e3881846137bb565b90509392505050565b6000602082019050613e5660008301846136ec565b92915050565b6000608082019050613e716000830187613773565b613e7e6020830186613737565b613e8b6040830185613719565b8181036060830152613e9d81846137bb565b905095945050505050565b60006020820190508181036000830152613ec1816138a4565b9050919050565b60006020820190508181036000830152613ee1816138c7565b9050919050565b60006020820190508181036000830152613f01816138ea565b9050919050565b60006020820190508181036000830152613f218161390d565b9050919050565b60006020820190508181036000830152613f4181613930565b9050919050565b60006020820190508181036000830152613f6181613953565b9050919050565b60006020820190508181036000830152613f8181613976565b9050919050565b60006020820190508181036000830152613fa181613999565b9050919050565b60006020820190508181036000830152613fc1816139bc565b9050919050565b60006020820190508181036000830152613fe1816139df565b9050919050565b6000602082019050818103600083015261400181613a02565b9050919050565b6000602082019050818103600083015261402181613a25565b9050919050565b6000602082019050818103600083015261404181613a48565b9050919050565b6000602082019050818103600083015261406181613a6b565b9050919050565b6000602082019050818103600083015261408181613a8e565b9050919050565b600060208201905081810360008301526140a181613ab1565b9050919050565b600060208201905081810360008301526140c181613ad4565b9050919050565b600060208201905081810360008301526140e181613af7565b9050919050565b6000602082019050818103600083015261410181613b1a565b9050919050565b6000602082019050818103600083015261412181613b3d565b9050919050565b600060208201905081810360008301526141428184613b60565b905092915050565b600060208201905081810360008301526141648184613c64565b905092915050565b60006020820190506141816000830184613d8c565b92915050565b600060408201905061419c6000830185613d8c565b6141a96020830184613d8c565b9392505050565b60006060820190506141c56000830186613d8c565b6141d26020830185613d8c565b6141df6040830184613d8c565b949350505050565b60006040820190506141fc6000830185613d8c565b6142096020830184613db9565b9392505050565b60006020820190506142256000830184613d9b565b92915050565b6000614235614246565b905061424182826145cb565b919050565b6000604051905090565b600067ffffffffffffffff82111561426b5761426a6146b6565b5b614274826146f9565b9050602081019050919050565b60008190508160005260206000209050919050565b600081519050919050565b600082825260208201905092915050565b600082825260208201905092915050565b600081905092915050565b60006142d9826144d0565b91506142e4836144d0565b9250827fffffffffffffffffffffffffffffffffffffffffffffffffffffffffffffffff0382111561431957614318614629565b5b828201905092915050565b600061432f826144ea565b915061433a836144ea565b92508260ff038211156143505761434f614629565b5b828201905092915050565b6000614366826144d0565b9150614371836144d0565b92508282101561438457614383614629565b5b828203905092915050565b600061439a826144ea565b91506143a5836144ea565b9250828210156143b8576143b7614629565b5b828203905092915050565b60006143ce826144b0565b9050919050565b60006143e0826144b0565b9050919050565b60008115159050919050565b60007fffffffffffffffffffff0000000000000000000000000000000000000000000082169050919050565b60007fffffffffffff000000000000000000000000000000000000000000000000000082169050919050565b60007fffffffffffffffff00000000000000000000000000000000000000000000000082169050919050565b600081905061448582614be0565b919050565b600081905061449882614bf4565b919050565b60008190506144ab82614c08565b919050565b600073ffffffffffffffffffffffffffffffffffffffff82169050919050565b6000819050919050565b600063ffffffff82169050919050565b600060ff82169050919050565b600061450282614477565b9050919050565b60006145148261448a565b9050919050565b60006145268261449d565b9050919050565b82818337600083830152505050565b60005b8381101561455a57808201518184015260208101905061453f565b83811115614569576000848401525b50505050565b600061457a826144da565b9150600082141561458e5761458d614629565b5b600182039050919050565b600060028204905060018216806145b157607f821691505b602082108114156145c5576145c4614687565b5b50919050565b6145d4826146f9565b810181811067ffffffffffffffff821117156145f3576145f26146b6565b5b80604052505050565b6000614607826144da565b915063ffffffff82141561461e5761461d614629565b5b600182019050919050565b7f4e487b7100000000000000000000000000000000000000000000000000000000600052601160045260246000fd5b7f4e487b7100000000000000000000000000000000000000000000000000000000600052602160045260246000fd5b7f4e487b7100000000000000000000000000000000000000000000000000000000600052602260045260246000fd5b7f4e487b7100000000000000000000000000000000000000000000000000000000600052604160045260246000fd5b600080fd5b600080fd5b600080fd5b600080fd5b6000601f19601f8301169050919050565b7f4475706c69636174652070726f70657274792068617368210000000000000000600082015250565b7f496e76616c6964206f726967696e616c4f776e6572206164647265737320283060008201527f7830290000000000000000000000000000000000000000000000000000000000602082015250565b7f54686973206973206f6e6c7920616c6c6f77656420666f72206163746976652060008201527f636f6e7472616374730000000000000000000000000000000000000000000000602082015250565b7f436f6e747261637420616c726561647920657869737473000000000000000000600082015250565b7f5365637572697479206465706f736974206d757374206265206d6f726520746860008201527f616e206665652100000000000000000000000000000000000000000000000000602082015250565b7f50726f706572747920697320616c72656164792061637469766520657869737460008201527f7300000000000000000000000000000000000000000000000000000000000000602082015250565b7f50726f706572747920697320696e2d6163746976652065786973747300000000600082015250565b7f496e73756666696369656e74207365637572697479206465706f73697420616d60008201527f6f756e7400000000000000000000000000000000000000000000000000000000602082015250565b7f50726f7065727479206e6f7420617661696c61626c6520666f722072656e746960008201527f6e67000000000000000000000000000000000000000000000000000000000000602082015250565b7f50726f706572747920646f6573206e6f74206578697374000000000000000000600082015250565b7f436f6e747261637420646f6573206e6f74206578697374000000000000000000600082015250565b7f4f6e6c792074686520726567697374657265642074656e616e7420697320616c60008201527f6c6f77656420746f20646f207468697300000000000000000000000000000000602082015250565b7f52656e74206d757374206265206d6f7265207468616e20666565210000000000600082015250565b7f496e73756666696369656e742072656e7420616d6f756e740000000000000000600082015250565b7f4f6e6c792070726f7065727479206f776e65722063616e20646f207468697300600082015250565b7f536563757269747920616c7265616479206465706f7369746564000000000000600082015250565b7f596f7520617265206e6f7420616c6c6f77656420746f2076696577207468697360008201527f20636f6e74726163740000000000000000000000000000000000000000000000602082015250565b7f457874656e73696f6e2d6475726174696f6e20646f6573206e6f74206d61746360008201527f682074686520776861742069732072657175657374656420627920746865207460208201527f656e616e74000000000000000000000000000000000000000000000000000000604082015250565b7f50726f706572747920616c726561647920657869737473000000000000000000600082015250565b7f4f6e6c792074686520726567697374657265642070726f7065727479206f776e60008201527f657220697320616c6c6f77656420746f20646f20746869730000000000000000602082015250565b60058110614bf157614bf0614658565b5b50565b60078110614c0557614c04614658565b5b50565b60068110614c1957614c18614658565b5b50565b614c25816143c3565b8114614c3057600080fd5b50565b614c3c816143f3565b8114614c4757600080fd5b50565b614c538161441f565b8114614c5e57600080fd5b50565b614c6a8161444b565b8114614c7557600080fd5b50565b60078110614c8557600080fd5b50565b60068110614c9557600080fd5b50565b614ca1816144d0565b8114614cac57600080fd5b50565b614cb8816144ea565b8114614cc357600080fd5b5056fea2646970667358221220f1bb6302b81031193822304fc561e57ed95f63a1f4ac43d7b4a41900ad18515a64736f6c63430008050033",
  "immutableReferences": {},
  "source": "// SPDX-License-Identifier: UNLICENSED\r\npragma solidity 0.8.5;\r\n\r\n\r\n/**\r\n* @title Utility super-class to provide basic ownership features\r\n*/\r\ncontract Ownable {\r\n\r\n\t/// Current smart-contract owner/admin\r\n\taddress payable public admin;\r\n\r\n\tconstructor() {\r\n\t\tadmin = payable(msg.sender);\r\n\t}\r\n\r\n\t/// Allowed only by the admin\r\n\tmodifier onlyAdmin {\r\n\t\trequire(msg.sender == admin, \"Only the admin is allowed to do this!\");\r\n\t\t_;\r\n\t}\r\n}\r\n\r\n\r\n\r\n\r\n/**\r\n * @title Utility contract to store a property listing\r\n */\r\ncontract TrustedPropertyListing {\r\n\r\n    enum PropertyType {\r\n        House,                         //  0 House\r\n        ApartmentAndUnit,              //  1 Apartment and unit\r\n        Townhouse,                     //  2 Townhouse\r\n        Villa,                         //  3 Villa\r\n        BlockOfUnits,                  //  4 Block of units (?)\r\n        RetirementLiving               //  5 Retirement living\r\n    }\r\n\r\n    // The number of rooms, bathrooms, parking spaces, etc.\r\n    enum NumberOf {\r\n        Zero,                          //  0 Zero\r\n        One,                           //  1 One\r\n        Two,                           //  2 Two\r\n        Three,                         //  3 Three\r\n        Four,                          //  4 Four\r\n        Five,                          //  5 Five\r\n        SixOrMore                      //  6 Six or more\r\n    }\r\n\r\n\r\n    // TODO: Require a legal property-document-id to verify property\r\n    // TODO: Add floor (uint8)\r\n    // TODO: Add country_code (gives stack too deep error - max 16 local variables allowed in a function)\r\n    struct Property {\r\n        string id;\r\n        bool doesExist;\r\n        bool isActive;\r\n        PropertyType propertyType;\r\n        bytes8 unit_number;            // House/Apartment/Flat number\r\n        bytes6 pincode;\r\n        string location;\r\n        NumberOf rooms;\r\n        NumberOf bathrooms;\r\n        NumberOf parking;\r\n        // string comments;\r\n        uint initialAvailableDate;\r\n        address originalOwner;\r\n        address currentTenant;\r\n        uint256 postedAt;               // Date of listing\r\n    }\r\n\r\n    /// Public view of a listed property\r\n    struct PropertyView {\r\n        bool isActive;\r\n        bool isAvailable;\r\n        PropertyType propertyType;\r\n        bytes8 unit_number;            // House/Apartment/Flat number\r\n        bytes6 pincode;\r\n        string location;\r\n        NumberOf rooms;\r\n        NumberOf bathrooms;\r\n        NumberOf parking;\r\n        address originalOwner;\r\n        uint currentRent;\r\n        uint currentSecurity;\r\n    }\r\n\r\n\r\n    /// Struct to hold the property rent details\r\n    struct PropertyRent {\r\n        uint security_deposit;                  // Initial security deposit required (in wei)\r\n\t\tuint rent_amount;                       // Rent amount per month (in wei)\r\n\t\tuint256 updatedAt;                      // Rent update timestamp\r\n    }\r\n\r\n\r\n    /// Mapping of property_id to the Property data\r\n    /// TODO: Make private\r\n    mapping (string => Property) internal properties;\r\n\r\n    /// Mapping of property_id to it's Rent data\r\n    /// TODO: Make private\r\n    mapping (string => PropertyRent) internal propertyRents;\r\n\r\n    /// Mapping of hash of a property to property_id\r\n    mapping (bytes32 => string) private propertyHashes;\r\n\r\n    uint32 public propertyCount = 0;\r\n    uint32 public activePropertyCount = 0;\r\n\r\n\r\n    event PropertyAdded(address ownerAddress, string property_id);\r\n    event PropertyRemoved(address ownerAddress, string property_id);\r\n    event RentChanged(string property_id, uint security_deposit, uint rent_amount);\r\n\r\n\r\n    modifier propertyOwnerOnly(string memory property_id) {\r\n        require(properties[property_id].originalOwner == msg.sender, \"Only property owner can do this\");\r\n        _;\r\n    }\r\n\r\n    modifier propertyExists(string memory property_id) {\r\n        require(properties[property_id].doesExist, \"Property does not exist\");\r\n        _;\r\n    }\r\n\r\n    modifier propertyDoesNotExist(string memory property_id) {\r\n        require(!properties[property_id].doesExist, \"Property already exists\");\r\n        _;\r\n    }\r\n\r\n    modifier propertyIsActive(string memory property_id) {\r\n        require(properties[property_id].isActive, \"Property is in-active exists\");\r\n        _;\r\n    }\r\n\r\n    modifier propertyNotActive(string memory property_id) {\r\n        require(!properties[property_id].isActive, \"Property is already active exists\");\r\n        _;\r\n    }\r\n\r\n\r\n    /// Return the hash of a property\r\n    // TODO: Add country_code, unique legal property-document-id, etc\r\n    function _propertyHash(\r\n        PropertyType propertyType,\r\n        bytes8 unit_number,\r\n        bytes6 pincode,\r\n        string memory location\r\n    ) private pure returns (bytes32) {\r\n        return keccak256(abi.encode(propertyType, unit_number, pincode, location));\r\n    }\r\n\r\n\r\n    /// Add new property\r\n    function addProperty (\r\n        string memory property_id,\r\n        PropertyType propertyType,\r\n        bytes8 unit_number,\r\n        bytes6 pincode,\r\n        string memory location,\r\n        NumberOf rooms,\r\n        NumberOf bathrooms,\r\n        NumberOf parking,\r\n        // string memory comments,\r\n        uint initialAvailableDate)\r\n    public\r\n    {\r\n        addPropertyOnBehalfOfOwner({\r\n            property_id: property_id,\r\n            originalOwner: msg.sender,\r\n            location: location,\r\n            propertyType: propertyType,\r\n            unit_number: unit_number,\r\n            pincode: pincode,\r\n            rooms: rooms,\r\n            bathrooms: bathrooms,\r\n            parking: parking,\r\n            // comments: comments,\r\n            initialAvailableDate: initialAvailableDate\r\n        });\r\n    }\r\n\r\n\r\n    /// Add new property on behalf of another owner\r\n    function addPropertyOnBehalfOfOwner (\r\n        string memory property_id,\r\n        address originalOwner,\r\n        PropertyType propertyType,\r\n        bytes8 unit_number,\r\n        bytes6 pincode,\r\n        string memory location,\r\n        NumberOf rooms,\r\n        NumberOf bathrooms,\r\n        NumberOf parking,\r\n        // string memory comments,\r\n        uint initialAvailableDate)\r\n    public\r\n    propertyDoesNotExist(property_id)\r\n    {\r\n        require(originalOwner != address(0x0), \"Invalid originalOwner address (0x0)\");\r\n        require(!properties[propertyHashes[_propertyHash(propertyType, unit_number, pincode, location)]].doesExist, \"Duplicate property hash!\");\r\n\r\n        properties[property_id] = Property({\r\n            id: property_id,\r\n            doesExist: true,\r\n            isActive: true,\r\n            originalOwner: originalOwner,\r\n            location: location,\r\n            propertyType: propertyType,\r\n            unit_number: unit_number,\r\n            pincode: pincode,\r\n            rooms: rooms,\r\n            bathrooms: bathrooms,\r\n            parking: parking,\r\n            // comments: comments,\r\n            initialAvailableDate: initialAvailableDate,\r\n            currentTenant: address(0x0),\r\n            postedAt: block.timestamp\r\n        });\r\n\r\n        propertyCount++;\r\n        activePropertyCount++;\r\n\r\n        emit PropertyAdded(originalOwner, property_id);\r\n    }\r\n\r\n\r\n    /// Get the property details\r\n    /// @dev anyone can get the property details\r\n    function getProperty (\r\n        string memory property_id)\r\n    public\r\n    view\r\n    propertyExists(property_id)\r\n    returns (PropertyView memory)\r\n    {\r\n        return PropertyView({\r\n            isActive: properties[property_id].isActive,\r\n            isAvailable: properties[property_id].currentTenant != address(0x0),\r\n            location: properties[property_id].location,\r\n            propertyType: properties[property_id].propertyType,\r\n            unit_number: properties[property_id].unit_number,\r\n            pincode: properties[property_id].pincode,\r\n            rooms: properties[property_id].rooms,\r\n            bathrooms: properties[property_id].bathrooms,\r\n            parking: properties[property_id].parking,\r\n            originalOwner: properties[property_id].originalOwner,\r\n            currentRent: propertyRents[property_id].rent_amount,\r\n            currentSecurity: propertyRents[property_id].security_deposit\r\n        });\r\n    }\r\n\r\n\r\n    /// Set rent for the property\r\n    /// @dev Only the property owner can set rent\r\n    function setRent (\r\n        string memory property_id,\r\n        uint security_deposit,\r\n        uint rent_amount)\r\n    public\r\n    propertyIsActive(property_id)\r\n    propertyOwnerOnly(property_id)\r\n    returns (bool)\r\n    {\r\n        properties[property_id].isActive = true;\r\n        propertyRents[property_id] = PropertyRent({\r\n            security_deposit: security_deposit,\r\n    \t\trent_amount: rent_amount,\r\n    \t\tupdatedAt: block.timestamp\r\n        });\r\n        return true;\r\n    }\r\n\r\n\r\n    /// Is the property available for renting?\r\n    /// @dev Returns true if property is active, not currently rented and the rent amount is set\r\n    function isPropertyAvailable (\r\n        string memory property_id)\r\n    public\r\n    view\r\n    returns (bool)\r\n    {\r\n        return properties[property_id].isActive && properties[property_id].currentTenant != address(0x0) && propertyRents[property_id].rent_amount > 0;\r\n    }\r\n\r\n\r\n    //only original owner can mark property as in-active\r\n    function deactivateProperty (\r\n        string memory property_id)\r\n    public\r\n    propertyIsActive(property_id)\r\n    propertyOwnerOnly(property_id)\r\n    returns (bool)\r\n    {\r\n        properties[property_id].isActive = false;\r\n        activePropertyCount--;\r\n        return true;\r\n    }\r\n\r\n\r\n    //only original owner can mark property as active\r\n    function activateProperty (\r\n        string memory property_id)\r\n    public\r\n    propertyExists(property_id)\r\n    propertyNotActive(property_id)\r\n    propertyOwnerOnly(property_id)\r\n    returns (bool)\r\n    {\r\n        properties[property_id].isActive = true;\r\n        activePropertyCount++;\r\n        return true;\r\n    }\r\n\r\n}\r\n\r\n\r\n\r\n\r\n/**\r\n * @title Basic contract for TrustedProperties\r\n */\r\ncontract TrustedPropertiesBasicRentContract is TrustedPropertyListing, Ownable {\r\n\r\n    /// How much wei/token required as fee for any transaction?\r\n    uint public contractTransactionFee;\r\n\r\n    enum AgreementStatus {\r\n    \tUninitialized,     // 0\r\n    \tDepositPending,    // 1\r\n    \tActive,            // 2\r\n    \tCompleted,         // 3\r\n    \tTerminated         // 4\r\n    }\r\n\r\n\r\n\tstruct RentContract {\r\n\r\n\t\tbool doesExist;\r\n\r\n\t\tstring property_id;\r\n\t\tAgreementStatus status;\r\n\t\taddress owner;                          // Property owner address\r\n\t\taddress tenant;                         // Tenant address\r\n\t\tuint security_deposit;                  // Initial security deposit required (in wei)\r\n\t\tuint rent_amount;                       // Rent amount per month (in wei)\r\n\t\tuint8 duration;                         // Duration of the agreement (in months)\r\n\t\tuint8 remaining_payments;               // Count of monthly payments due\r\n\t\tuint security_deposit_balance;          // Current balance of security deposit\r\n        bytes10 start_date;                     // Contract start date (format: yyyy-mm-dd)\r\n\t\tuint8 duration_extension_request;       // Duration (in months) for contract extension requested by Tenant\r\n\t\tuint256 createdAt;                      // Contract creation timestamp\r\n\t}\r\n\r\n    /// Mapping of contract_id to the Contract data\r\n\tmapping (uint => RentContract) private contracts;\r\n\r\n\t/// Mapping of users' balances (user address to amount due)\r\n\tmapping (address => uint) private balances;\r\n\r\n\r\n\r\n\t// ----------------- EVENTS --------------------------------------\r\n\r\n\t/// Notify whenever a contract is added\r\n    /// @param contract_id ID of the contract\r\n    event ContractAdded(uint contract_id);\r\n\r\n    /// Notify whenever security amount is deposited\r\n    /// @param contract_id ID of the contract\r\n    event SecurityDeposited(uint contract_id, uint amount, uint trxn_fee);\r\n\r\n    /// Notify whenever a rent is paid\r\n    /// @param contract_id ID of the contract\r\n    /// @param amount Rent amount paid\r\n    /// @param trxn_fee Fee deducted for the transaction\r\n    event RentPaid(uint contract_id, uint amount, uint trxn_fee);\r\n\r\n    /// Notify whenever the contract is prematurely terminated\r\n    /// @param contract_id ID of the contract\r\n    event ContractTerminated(uint contract_id);\r\n\r\n    /// Notify whenever the contract is prematurely terminated\r\n    /// @param contract_id ID of the contract\r\n    event ExtraAmountRefunded(uint contract_id, uint amount);\r\n\r\n    /// Notify whenever a request to extend the contract duration is made by the tenant\r\n    /// @param contract_id ID of the contract\r\n    /// @param extension_duration The number of months for which thetenant wants to extend the contract\r\n    event ContractDurationExtensionRequested(uint contract_id, uint8 extension_duration);\r\n\r\n    /// Notify whenever a request to extend the contract duration is confirmed by the owner\r\n    /// @param contract_id ID of the contract\r\n    /// @param extension_duration The number of months for which the contract is extended\r\n    event ContractDurationExtended(uint contract_id, uint8 extension_duration);\r\n\r\n\r\n\r\n\t// ----------------- MODIFIERS --------------------------------------\r\n\r\n    modifier contractExists(uint contract_id) {\r\n        require(contracts[contract_id].doesExist, \"Contract does not exist\");\r\n        _;\r\n    }\r\n\r\n    modifier contractDoesNotExist(uint contract_id) {\r\n        require(!contracts[contract_id].doesExist, \"Contract already exists\");\r\n        _;\r\n    }\r\n\r\n    modifier ownerOnly(uint contract_id) {\r\n        require(msg.sender == contracts[contract_id].owner, \"Only the registered property owner is allowed to do this\");\r\n        _;\r\n    }\r\n\r\n    modifier tenantOnly(uint contract_id) {\r\n        require(msg.sender == contracts[contract_id].tenant, \"Only the registered tenant is allowed to do this\");\r\n        _;\r\n    }\r\n\r\n    modifier activeContractOnly(uint contract_id) {\r\n        require(contracts[contract_id].status == AgreementStatus.Active, \"This is only allowed for active contracts\");\r\n        _;\r\n    }\r\n\r\n\r\n\r\n\t// ----------------- METHODS --------------------------------------\r\n\r\n    constructor (uint trxnFee) {\r\n        contractTransactionFee = trxnFee;\r\n    }\r\n\r\n\r\n    /// Initialize RentContract by the owner\r\n    function initializeRentContract(\r\n        uint contract_id,\r\n        string memory property_id,\r\n        address tenant,\r\n        uint8 duration,\r\n        bytes10 start_date\r\n    )\r\n    public\r\n    propertyOwnerOnly(property_id)\r\n    contractDoesNotExist(contract_id) {\r\n\r\n        require(isPropertyAvailable(property_id), \"Property not available for renting\");\r\n        require(propertyRents[property_id].rent_amount > contractTransactionFee, \"Rent must be more than fee!\");\r\n        require(propertyRents[property_id].security_deposit > contractTransactionFee, \"Security deposit must be more than fee!\");\r\n\r\n        contracts[contract_id] = RentContract({\r\n            doesExist: true,\r\n            property_id: property_id,\r\n            status: AgreementStatus.DepositPending,\r\n            owner: msg.sender,\r\n            tenant: tenant,\r\n            security_deposit: propertyRents[property_id].security_deposit,\r\n            rent_amount: propertyRents[property_id].rent_amount,\r\n            duration: duration,\r\n            start_date: start_date,\r\n            remaining_payments: duration,\r\n            security_deposit_balance: 0,\r\n            duration_extension_request: 0,\r\n            createdAt: block.timestamp\r\n        });\r\n\r\n        emit ContractAdded(contract_id);\r\n    }\r\n\r\n\r\n    /// Deposit the security amount from tenant to owner\r\n    /// @param contract_id The id of the contract to deposit security amount for\r\n    function depositSecurity(uint contract_id)\r\n    public\r\n    payable\r\n    contractExists(contract_id)\r\n    tenantOnly(contract_id) {\r\n\r\n        // RentContract contract = contracts[contract_id];\r\n\r\n        require(contracts[contract_id].status == AgreementStatus.DepositPending, \"Security already deposited\");\r\n        require(msg.value >= contracts[contract_id].security_deposit, \"Insufficient security deposit amount\");\r\n\r\n        uint debit_amount = contracts[contract_id].security_deposit;\r\n\r\n        contracts[contract_id].security_deposit_balance = (debit_amount - contractTransactionFee);\r\n\t\tcontracts[contract_id].status = AgreementStatus.Active;\r\n\r\n\r\n\t\t// Transfer the security deposit amount to owner (minus the platform fee)\r\n\t\t// balances[contracts[contract_id].owner] += (debit_amount - contractTransactionFee);\r\n\r\n\t\t// Refund any extra amount to the tenant\r\n\t\tif (msg.value > debit_amount) {\r\n\t\t    balances[contracts[contract_id].tenant] += (msg.value - debit_amount);\r\n\t\t}\r\n\r\n\t\temit SecurityDeposited(contract_id, contracts[contract_id].security_deposit, contractTransactionFee);\r\n\t\temit ExtraAmountRefunded(contract_id, msg.value - debit_amount);\r\n    }\r\n\r\n\r\n\r\n    /// Deposit the security amount from tenant to owner\r\n    /// @param contract_id The id of the contract to pay rent for\r\n    /// @dev only Tenant can pay the rent\r\n    function payRent(uint contract_id)\r\n    public\r\n    payable\r\n    contractExists(contract_id)\r\n    tenantOnly(contract_id)\r\n    activeContractOnly(contract_id) {\r\n\r\n        // RentContract contract = contracts[contract_id];\r\n\r\n        require(msg.value >= contracts[contract_id].rent_amount, \"Insufficient rent amount\");\r\n\r\n        contracts[contract_id].remaining_payments -= 1;\r\n        if (contracts[contract_id].remaining_payments == 0) {\r\n            // Contract over\r\n\t\t    contracts[contract_id].status = AgreementStatus.Completed;\r\n\r\n\t\t    // Refund security deposit to the Tenant\r\n\t\t    balances[contracts[contract_id].tenant] += contracts[contract_id].security_deposit_balance;\r\n        }\r\n\r\n        uint debit_amount = contracts[contract_id].rent_amount;\r\n\r\n\r\n\t\t// Transfer the rent amount to owner (minus the platform fee)\r\n\t\tbalances[contracts[contract_id].owner] += (debit_amount - contractTransactionFee);\r\n\r\n\t\t// Refund any extra amount to the tenant\r\n\t\tif (msg.value > debit_amount) {\r\n\t\t    balances[contracts[contract_id].tenant] += (msg.value - debit_amount);\r\n\t\t}\r\n\r\n\t\temit RentPaid(contract_id, contracts[contract_id].security_deposit, contractTransactionFee);\r\n\t\temit ExtraAmountRefunded(contract_id, msg.value - debit_amount);\r\n    }\r\n\r\n\r\n    /**\r\n     * Allow users to withdraw from their wallet\r\n     * @return whether the withdrawal was successful\r\n     */\r\n    function withdraw() public returns (bool) {\r\n        uint amount = balances[msg.sender];\r\n\r\n        if (amount > 0) {\r\n            balances[msg.sender] = 0;\r\n\r\n            if (!payable(msg.sender).send(amount)) {\r\n                balances[msg.sender] = amount;\r\n                return false;\r\n            }\r\n        }\r\n\r\n        return true;\r\n    }\r\n\r\n\r\n    /// Get the funds available in self's wallet\r\n    function getPendingFunds() public view returns (uint) {\r\n        return balances[msg.sender];\r\n    }\r\n\r\n\r\n    /// Get the details of a contract\r\n    /// @param contract_id The id of the contract to get details of\r\n    function getContractDetails(uint contract_id)\r\n        public\r\n        view\r\n        contractExists(contract_id)\r\n        returns ( RentContract memory) {\r\n\r\n        require(msg.sender == contracts[contract_id].owner ||\r\n            msg.sender == contracts[contract_id].tenant ||\r\n            msg.sender == admin,\r\n            \"You are not allowed to view this contract\");\r\n\r\n        return RentContract({\r\n            doesExist: true,\r\n            property_id: contracts[contract_id].property_id,\r\n            status: contracts[contract_id].status,\r\n            owner: contracts[contract_id].owner,\r\n            tenant: contracts[contract_id].tenant,\r\n            security_deposit: contracts[contract_id].security_deposit,\r\n            rent_amount: contracts[contract_id].rent_amount,\r\n            duration: contracts[contract_id].duration,\r\n            remaining_payments: contracts[contract_id].remaining_payments,\r\n            security_deposit_balance: contracts[contract_id].security_deposit_balance,\r\n            start_date: contracts[contract_id].start_date,\r\n            duration_extension_request: contracts[contract_id].duration_extension_request,\r\n            createdAt: contracts[contract_id].createdAt\r\n        });\r\n    }\r\n\r\n\r\n    /// Request to extend the contract duration - from tenant to owner\r\n    /// @param contract_id The id of the contract to to pay rent for\r\n    /// @param extension_duration The number of months for which thetenant wants to extend the contract\r\n    /// @dev only Tenant can make the request\r\n    function extendContractDurationRequest(uint contract_id, uint8 extension_duration)\r\n    public\r\n    contractExists(contract_id)\r\n    tenantOnly(contract_id)\r\n    activeContractOnly(contract_id) {\r\n\r\n        contracts[contract_id].duration_extension_request = extension_duration;\r\n\r\n        emit ContractDurationExtensionRequested(contract_id, extension_duration);\r\n    }\r\n\r\n\r\n\t/// Request to extend the contract duration - from tenant to owner\r\n    /// @param contract_id The id of the contract to to pay rent for\r\n    /// @param extension_duration The number of months for which thetenant wants to extend the contract\r\n    /// @dev only Property Owner can make the request\r\n    function extendContractDurationConfirm(uint contract_id, uint8 extension_duration)\r\n    public\r\n    contractExists(contract_id)\r\n    ownerOnly(contract_id)\r\n    activeContractOnly(contract_id) {\r\n\r\n        require(contracts[contract_id].duration_extension_request == extension_duration, \"Extension-duration does not match the what is requested by the tenant\");\r\n\r\n        contracts[contract_id].duration += extension_duration;\r\n        contracts[contract_id].remaining_payments += extension_duration;\r\n        contracts[contract_id].duration_extension_request = 0;\r\n\r\n        emit ContractDurationExtended(contract_id, extension_duration);\r\n    }\r\n\r\n}",
  "sourcePath": "D:\\rentals_ethereum_blockchain\\contracts\\TrustedPropertiesBasicRentContract.sol",
  "compiler": {
    "name": "solc",
    "version": "0.8.5+commit.a4f2e591.Emscripten.clang"
  },
  "schemaVersion": "3.4.3",
  "updatedAt": "2021-09-19T17:36:49.904Z",
  "networkType": "ethereum",
  "devdoc": {
    "events": {
      "ContractAdded(uint256)": {
        "params": {
          "contract_id": "ID of the contract"
        }
      },
      "ContractDurationExtended(uint256,uint8)": {
        "params": {
          "contract_id": "ID of the contract",
          "extension_duration": "The number of months for which the contract is extended"
        }
      },
      "ContractDurationExtensionRequested(uint256,uint8)": {
        "params": {
          "contract_id": "ID of the contract",
          "extension_duration": "The number of months for which thetenant wants to extend the contract"
        }
      },
      "ContractTerminated(uint256)": {
        "params": {
          "contract_id": "ID of the contract"
        }
      },
      "ExtraAmountRefunded(uint256,uint256)": {
        "params": {
          "contract_id": "ID of the contract"
        }
      },
      "RentPaid(uint256,uint256,uint256)": {
        "params": {
          "amount": "Rent amount paid",
          "contract_id": "ID of the contract",
          "trxn_fee": "Fee deducted for the transaction"
        }
      },
      "SecurityDeposited(uint256,uint256,uint256)": {
        "params": {
          "contract_id": "ID of the contract"
        }
      }
    },
    "kind": "dev",
    "methods": {
      "depositSecurity(uint256)": {
        "params": {
          "contract_id": "The id of the contract to deposit security amount for"
        }
      },
      "extendContractDurationConfirm(uint256,uint8)": {
        "details": "only Property Owner can make the request",
        "params": {
          "contract_id": "The id of the contract to to pay rent for",
          "extension_duration": "The number of months for which thetenant wants to extend the contract"
        }
      },
      "extendContractDurationRequest(uint256,uint8)": {
        "details": "only Tenant can make the request",
        "params": {
          "contract_id": "The id of the contract to to pay rent for",
          "extension_duration": "The number of months for which thetenant wants to extend the contract"
        }
      },
      "getContractDetails(uint256)": {
        "params": {
          "contract_id": "The id of the contract to get details of"
        }
      },
      "getProperty(string)": {
        "details": "anyone can get the property details"
      },
      "isPropertyAvailable(string)": {
        "details": "Returns true if property is active, not currently rented and the rent amount is set"
      },
      "payRent(uint256)": {
        "details": "only Tenant can pay the rent",
        "params": {
          "contract_id": "The id of the contract to pay rent for"
        }
      },
      "setRent(string,uint256,uint256)": {
        "details": "Only the property owner can set rent"
      },
      "withdraw()": {
        "returns": {
          "_0": "whether the withdrawal was successful"
        }
      }
    },
    "title": "Basic contract for TrustedProperties",
    "version": 1
  },
  "userdoc": {
    "events": {
      "ContractAdded(uint256)": {
        "notice": "Notify whenever a contract is added"
      },
      "ContractDurationExtended(uint256,uint8)": {
        "notice": "Notify whenever a request to extend the contract duration is confirmed by the owner"
      },
      "ContractDurationExtensionRequested(uint256,uint8)": {
        "notice": "Notify whenever a request to extend the contract duration is made by the tenant"
      },
      "ContractTerminated(uint256)": {
        "notice": "Notify whenever the contract is prematurely terminated"
      },
      "ExtraAmountRefunded(uint256,uint256)": {
        "notice": "Notify whenever the contract is prematurely terminated"
      },
      "RentPaid(uint256,uint256,uint256)": {
        "notice": "Notify whenever a rent is paid"
      },
      "SecurityDeposited(uint256,uint256,uint256)": {
        "notice": "Notify whenever security amount is deposited"
      }
    },
    "kind": "user",
    "methods": {
      "addProperty(string,uint8,bytes8,bytes6,string,uint8,uint8,uint8,uint256)": {
        "notice": "Add new property"
      },
      "addPropertyOnBehalfOfOwner(string,address,uint8,bytes8,bytes6,string,uint8,uint8,uint8,uint256)": {
        "notice": "Add new property on behalf of another owner"
      },
      "admin()": {
        "notice": "Current smart-contract owner/admin"
      },
      "contractTransactionFee()": {
        "notice": "How much wei/token required as fee for any transaction?"
      },
      "depositSecurity(uint256)": {
        "notice": "Deposit the security amount from tenant to owner"
      },
      "extendContractDurationConfirm(uint256,uint8)": {
        "notice": "Request to extend the contract duration - from tenant to owner"
      },
      "extendContractDurationRequest(uint256,uint8)": {
        "notice": "Request to extend the contract duration - from tenant to owner"
      },
      "getContractDetails(uint256)": {
        "notice": "Get the details of a contract"
      },
      "getPendingFunds()": {
        "notice": "Get the funds available in self's wallet"
      },
      "getProperty(string)": {
        "notice": "Get the property details"
      },
      "initializeRentContract(uint256,string,address,uint8,bytes10)": {
        "notice": "Initialize RentContract by the owner"
      },
      "isPropertyAvailable(string)": {
        "notice": "Is the property available for renting?"
      },
      "payRent(uint256)": {
        "notice": "Deposit the security amount from tenant to owner"
      },
      "setRent(string,uint256,uint256)": {
        "notice": "Set rent for the property"
      },
      "withdraw()": {
        "notice": "Allow users to withdraw from their wallet"
      }
    },
    "version": 1
  }
}