{
  "contractName": "TrustedPropertiesBasicContract",
  "abi": [
    {
      "inputs": [
        {
          "internalType": "uint256",
          "name": "trxnFee",
          "type": "uint256"
        }
      ],
      "stateMutability": "nonpayable",
      "type": "constructor"
    },
    {
      "anonymous": false,
      "inputs": [
        {
          "indexed": false,
          "internalType": "uint256",
          "name": "contract_id",
          "type": "uint256"
        }
      ],
      "name": "ContractAdded",
      "type": "event"
    },
    {
      "anonymous": false,
      "inputs": [
        {
          "indexed": false,
          "internalType": "uint256",
          "name": "contract_id",
          "type": "uint256"
        }
      ],
      "name": "ContractTerminated",
      "type": "event"
    },
    {
      "anonymous": false,
      "inputs": [
        {
          "indexed": false,
          "internalType": "uint256",
          "name": "contract_id",
          "type": "uint256"
        },
        {
          "indexed": false,
          "internalType": "uint256",
          "name": "amount",
          "type": "uint256"
        }
      ],
      "name": "ExtraAmountRefunded",
      "type": "event"
    },
    {
      "anonymous": false,
      "inputs": [
        {
          "indexed": false,
          "internalType": "uint256",
          "name": "contract_id",
          "type": "uint256"
        },
        {
          "indexed": false,
          "internalType": "uint256",
          "name": "amount",
          "type": "uint256"
        },
        {
          "indexed": false,
          "internalType": "uint256",
          "name": "trxn_fee",
          "type": "uint256"
        }
      ],
      "name": "RentPaid",
      "type": "event"
    },
    {
      "anonymous": false,
      "inputs": [
        {
          "indexed": false,
          "internalType": "uint256",
          "name": "contract_id",
          "type": "uint256"
        },
        {
          "indexed": false,
          "internalType": "uint256",
          "name": "amount",
          "type": "uint256"
        },
        {
          "indexed": false,
          "internalType": "uint256",
          "name": "trxn_fee",
          "type": "uint256"
        }
      ],
      "name": "SecurityDeposited",
      "type": "event"
    },
    {
      "inputs": [],
      "name": "contractTransactionFee",
      "outputs": [
        {
          "internalType": "uint256",
          "name": "",
          "type": "uint256"
        }
      ],
      "stateMutability": "view",
      "type": "function",
      "constant": true
    },
    {
      "inputs": [],
      "name": "owner",
      "outputs": [
        {
          "internalType": "address",
          "name": "",
          "type": "address"
        }
      ],
      "stateMutability": "view",
      "type": "function",
      "constant": true
    },
    {
      "inputs": [
        {
          "internalType": "uint256",
          "name": "contract_id",
          "type": "uint256"
        },
        {
          "internalType": "address",
          "name": "tenant",
          "type": "address"
        },
        {
          "internalType": "uint256",
          "name": "security_deposit",
          "type": "uint256"
        },
        {
          "internalType": "uint256",
          "name": "rent_amount",
          "type": "uint256"
        },
        {
          "internalType": "uint8",
          "name": "duration",
          "type": "uint8"
        },
        {
          "internalType": "string",
          "name": "start_date",
          "type": "string"
        }
      ],
      "name": "initializeRentContract",
      "outputs": [],
      "stateMutability": "nonpayable",
      "type": "function"
    },
    {
      "inputs": [
        {
          "internalType": "uint256",
          "name": "contract_id",
          "type": "uint256"
        }
      ],
      "name": "depositSecurity",
      "outputs": [],
      "stateMutability": "payable",
      "type": "function",
      "payable": true
    },
    {
      "inputs": [
        {
          "internalType": "uint256",
          "name": "contract_id",
          "type": "uint256"
        }
      ],
      "name": "payRent",
      "outputs": [],
      "stateMutability": "payable",
      "type": "function",
      "payable": true
    },
    {
      "inputs": [],
      "name": "withdraw",
      "outputs": [
        {
          "internalType": "bool",
          "name": "",
          "type": "bool"
        }
      ],
      "stateMutability": "nonpayable",
      "type": "function"
    },
    {
      "inputs": [],
      "name": "getPendingFunds",
      "outputs": [
        {
          "internalType": "uint256",
          "name": "",
          "type": "uint256"
        }
      ],
      "stateMutability": "view",
      "type": "function",
      "constant": true
    },
    {
      "inputs": [
        {
          "internalType": "uint256",
          "name": "contract_id",
          "type": "uint256"
        }
      ],
      "name": "getContractDetails",
      "outputs": [
        {
          "internalType": "uint8",
          "name": "status",
          "type": "uint8"
        },
        {
          "internalType": "address",
          "name": "owner",
          "type": "address"
        },
        {
          "internalType": "address",
          "name": "tenant",
          "type": "address"
        },
        {
          "internalType": "uint256",
          "name": "security_deposit",
          "type": "uint256"
        },
        {
          "internalType": "uint256",
          "name": "rent_amount",
          "type": "uint256"
        },
        {
          "internalType": "uint8",
          "name": "duration",
          "type": "uint8"
        },
        {
          "internalType": "uint8",
          "name": "remaining_payments",
          "type": "uint8"
        }
      ],
      "stateMutability": "view",
      "type": "function",
      "constant": true
    }
  ],
  "bytecode": "0x60806040523480156200001157600080fd5b5060405162001f1e38038062001f1e83398181016040528101906200003791906200009c565b336000806101000a81548173ffffffffffffffffffffffffffffffffffffffff021916908373ffffffffffffffffffffffffffffffffffffffff1602179055508060018190555050620000f7565b6000815190506200009681620000dd565b92915050565b600060208284031215620000b557620000b4620000d8565b5b6000620000c58482850162000085565b91505092915050565b6000819050919050565b600080fd5b620000e881620000ce565b8114620000f457600080fd5b50565b611e1780620001076000396000f3fe608060405260043610610098576000357c0100000000000000000000000000000000000000000000000000000000900480634d6d6a9c1161006b5780634d6d6a9c1461013a5780634ead86541461017d5780638da5cb5b146101a6578063d9e8843f146101d157610098565b806322aeddfd1461009d57806324c1c0c9146100b95780633ccfd60b146100e4578063444b1bfb1461010f575b600080fd5b6100b760048036038101906100b291906113cd565b6101ed565b005b3480156100c557600080fd5b506100ce61059a565b6040516100db91906117b3565b60405180910390f35b3480156100f057600080fd5b506100f96105e1565b6040516101069190611658565b60405180910390f35b34801561011b57600080fd5b50610124610705565b60405161013191906117b3565b60405180910390f35b34801561014657600080fd5b50610161600480360381019061015c91906113cd565b61070b565b604051610174979695949392919061182e565b60405180910390f35b34801561018957600080fd5b506101a4600480360381019061019f91906113fa565b6109f9565b005b3480156101b257600080fd5b506101bb610d1b565b6040516101c8919061163d565b60405180910390f35b6101eb60048036038101906101e691906113cd565b610d3f565b005b600115156002600083815260200190815260200160002060000160009054906101000a900460ff16151514610257576040517f08c379a000000000000000000000000000000000000000000000000000000000815260040161024e90611693565b60405180910390fd5b6002600082815260200190815260200160002060010160009054906101000a900473ffffffffffffffffffffffffffffffffffffffff1673ffffffffffffffffffffffffffffffffffffffff163373ffffffffffffffffffffffffffffffffffffffff16146102fb576040517f08c379a00000000000000000000000000000000000000000000000000000000081526004016102f290611713565b60405180910390fd5b6001600481111561030f5761030e611ab8565b5b6002600083815260200190815260200160002060000160019054906101000a900460ff16600481111561034557610344611ab8565b5b14610385576040517f08c379a000000000000000000000000000000000000000000000000000000000815260040161037c90611753565b60405180910390fd5b60026000828152602001908152602001600020600201543410156103de576040517f08c379a00000000000000000000000000000000000000000000000000000000081526004016103d5906116d3565b60405180910390fd5b60006002600083815260200190815260200160002060020154905060015481610407919061195a565b6002600084815260200190815260200160002060050181905550600280600084815260200190815260200160002060000160016101000a81548160ff0219169083600481111561045a57610459611ab8565b5b0217905550803411156104ff578034610473919061195a565b600360006002600086815260200190815260200160002060010160009054906101000a900473ffffffffffffffffffffffffffffffffffffffff1673ffffffffffffffffffffffffffffffffffffffff1673ffffffffffffffffffffffffffffffffffffffff16815260200190815260200160002060008282546104f79190611904565b925050819055505b7fe1a7d82c5ff4c84d14fafc7aa528bf059a3eeaa60243a91d9de7d807391ad89882600260008581526020019081526020016000206002015460015460405161054a939291906117f7565b60405180910390a17f8069aa966ef8a1ca8b35da1d844e11f439d34560e52e43fd9b1ce455dc771724828234610580919061195a565b60405161058e9291906117ce565b60405180910390a15050565b6000600360003373ffffffffffffffffffffffffffffffffffffffff1673ffffffffffffffffffffffffffffffffffffffff16815260200190815260200160002054905090565b600080600360003373ffffffffffffffffffffffffffffffffffffffff1673ffffffffffffffffffffffffffffffffffffffff16815260200190815260200160002054905060008111156106fc576000600360003373ffffffffffffffffffffffffffffffffffffffff1673ffffffffffffffffffffffffffffffffffffffff168152602001908152602001600020819055503373ffffffffffffffffffffffffffffffffffffffff166108fc829081150290604051600060405180830381858888f193505050506106fb5780600360003373ffffffffffffffffffffffffffffffffffffffff1673ffffffffffffffffffffffffffffffffffffffff168152602001908152602001600020819055506000915050610702565b5b60019150505b90565b60015481565b600080600080600080600060011515600260008a815260200190815260200160002060000160009054906101000a900460ff16151514610780576040517f08c379a000000000000000000000000000000000000000000000000000000000815260040161077790611693565b60405180910390fd5b6002600089815260200190815260200160002060000160029054906101000a900473ffffffffffffffffffffffffffffffffffffffff1673ffffffffffffffffffffffffffffffffffffffff163373ffffffffffffffffffffffffffffffffffffffff16148061085157506002600089815260200190815260200160002060010160009054906101000a900473ffffffffffffffffffffffffffffffffffffffff1673ffffffffffffffffffffffffffffffffffffffff163373ffffffffffffffffffffffffffffffffffffffff16145b8061088757508573ffffffffffffffffffffffffffffffffffffffff163373ffffffffffffffffffffffffffffffffffffffff16145b6108c6576040517f08c379a00000000000000000000000000000000000000000000000000000000081526004016108bd90611773565b60405180910390fd5b6002600089815260200190815260200160002060000160019054906101000a900460ff1660048111156108fc576108fb611ab8565b5b600260008a815260200190815260200160002060000160029054906101000a900473ffffffffffffffffffffffffffffffffffffffff16600260008b815260200190815260200160002060010160009054906101000a900473ffffffffffffffffffffffffffffffffffffffff16600260008c815260200190815260200160002060020154600260008d815260200190815260200160002060030154600260008e815260200190815260200160002060040160009054906101000a900460ff16600260008f815260200190815260200160002060040160019054906101000a900460ff169650965096509650965096509650919395979092949650565b6000339050600115156002600089815260200190815260200160002060000160009054906101000a900460ff1615151415610a69576040517f08c379a0000000000000000000000000000000000000000000000000000000008152600401610a60906116b3565b60405180910390fd5b6001548411610aad576040517f08c379a0000000000000000000000000000000000000000000000000000000008152600401610aa490611793565b60405180910390fd5b60405180610160016040528060011515815260200160016004811115610ad657610ad5611ab8565b5b81526020018273ffffffffffffffffffffffffffffffffffffffff1681526020018773ffffffffffffffffffffffffffffffffffffffff1681526020018681526020018581526020018460ff1681526020018460ff16815260200160008152602001838152602001600060ff168152506002600089815260200190815260200160002060008201518160000160006101000a81548160ff02191690831515021790555060208201518160000160016101000a81548160ff02191690836004811115610ba457610ba3611ab8565b5b021790555060408201518160000160026101000a81548173ffffffffffffffffffffffffffffffffffffffff021916908373ffffffffffffffffffffffffffffffffffffffff16021790555060608201518160010160006101000a81548173ffffffffffffffffffffffffffffffffffffffff021916908373ffffffffffffffffffffffffffffffffffffffff1602179055506080820151816002015560a0820151816003015560c08201518160040160006101000a81548160ff021916908360ff16021790555060e08201518160040160016101000a81548160ff021916908360ff1602179055506101008201518160050155610120820151816006019080519060200190610cb592919061127b565b506101408201518160070160006101000a81548160ff021916908360ff1602179055509050507fac210b01e42cafdce02d0cd5dc41f3fe6a7245262f52a1cdf2a2eea60dada94087604051610d0a91906117b3565b60405180910390a150505050505050565b60008054906101000a900473ffffffffffffffffffffffffffffffffffffffff1681565b600115156002600083815260200190815260200160002060000160009054906101000a900460ff16151514610da9576040517f08c379a0000000000000000000000000000000000000000000000000000000008152600401610da090611693565b60405180910390fd5b6002600082815260200190815260200160002060010160009054906101000a900473ffffffffffffffffffffffffffffffffffffffff1673ffffffffffffffffffffffffffffffffffffffff163373ffffffffffffffffffffffffffffffffffffffff1614610e4d576040517f08c379a0000000000000000000000000000000000000000000000000000000008152600401610e4490611733565b60405180910390fd5b60026004811115610e6157610e60611ab8565b5b6002600083815260200190815260200160002060000160019054906101000a900460ff166004811115610e9757610e96611ab8565b5b14610ed7576040517f08c379a0000000000000000000000000000000000000000000000000000000008152600401610ece90611673565b60405180910390fd5b6002600082815260200190815260200160002060030154341015610f30576040517f08c379a0000000000000000000000000000000000000000000000000000000008152600401610f27906116f3565b60405180910390fd5b60016002600083815260200190815260200160002060040160018282829054906101000a900460ff16610f63919061198e565b92506101000a81548160ff021916908360ff16021790555060006002600083815260200190815260200160002060040160019054906101000a900460ff1660ff16141561108c5760036002600083815260200190815260200160002060000160016101000a81548160ff02191690836004811115610fe457610fe3611ab8565b5b02179055506002600082815260200190815260200160002060050154600360006002600085815260200190815260200160002060010160009054906101000a900473ffffffffffffffffffffffffffffffffffffffff1673ffffffffffffffffffffffffffffffffffffffff1673ffffffffffffffffffffffffffffffffffffffff16815260200190815260200160002060008282546110849190611904565b925050819055505b600060026000838152602001908152602001600020600301549050600154816110b5919061195a565b600360006002600086815260200190815260200160002060000160029054906101000a900473ffffffffffffffffffffffffffffffffffffffff1673ffffffffffffffffffffffffffffffffffffffff1673ffffffffffffffffffffffffffffffffffffffff16815260200190815260200160002060008282546111399190611904565b92505081905550803411156111e0578034611154919061195a565b600360006002600086815260200190815260200160002060010160009054906101000a900473ffffffffffffffffffffffffffffffffffffffff1673ffffffffffffffffffffffffffffffffffffffff1673ffffffffffffffffffffffffffffffffffffffff16815260200190815260200160002060008282546111d89190611904565b925050819055505b7fa62c35dfc0ff11d3713608ebcdc5c5d1952c7702620f2c46c22950f7b70d579782600260008581526020019081526020016000206002015460015460405161122b939291906117f7565b60405180910390a17f8069aa966ef8a1ca8b35da1d844e11f439d34560e52e43fd9b1ce455dc771724828234611261919061195a565b60405161126f9291906117ce565b60405180910390a15050565b82805461128790611a26565b90600052602060002090601f0160209004810192826112a957600085556112f0565b82601f106112c257805160ff19168380011785556112f0565b828001600101855582156112f0579182015b828111156112ef5782518255916020019190600101906112d4565b5b5090506112fd9190611301565b5090565b5b8082111561131a576000816000905550600101611302565b5090565b600061133161132c846118c2565b61189d565b90508281526020810184848401111561134d5761134c611b4a565b5b611358848285611a17565b509392505050565b60008135905061136f81611d9c565b92915050565b600082601f83011261138a57611389611b45565b5b813561139a84826020860161131e565b91505092915050565b6000813590506113b281611db3565b92915050565b6000813590506113c781611dca565b92915050565b6000602082840312156113e3576113e2611b54565b5b60006113f1848285016113a3565b91505092915050565b60008060008060008060c0878903121561141757611416611b54565b5b600061142589828a016113a3565b965050602061143689828a01611360565b955050604061144789828a016113a3565b945050606061145889828a016113a3565b935050608061146989828a016113b8565b92505060a087013567ffffffffffffffff81111561148a57611489611b4f565b5b61149689828a01611375565b9150509295509295509295565b6114ac816119c2565b82525050565b6114bb816119d4565b82525050565b60006114ce6016836118f3565b91506114d982611b6a565b602082019050919050565b60006114f16016836118f3565b91506114fc82611b93565b602082019050919050565b60006115146017836118f3565b915061151f82611bbc565b602082019050919050565b60006115376024836118f3565b915061154282611be5565b604082019050919050565b600061155a6018836118f3565b915061156582611c34565b602082019050919050565b600061157d6036836118f3565b915061158882611c5d565b604082019050919050565b60006115a0602b836118f3565b91506115ab82611cac565b604082019050919050565b60006115c3601a836118f3565b91506115ce82611cfb565b602082019050919050565b60006115e66029836118f3565b91506115f182611d24565b604082019050919050565b6000611609601c836118f3565b915061161482611d73565b602082019050919050565b61162881611a00565b82525050565b61163781611a0a565b82525050565b600060208201905061165260008301846114a3565b92915050565b600060208201905061166d60008301846114b2565b92915050565b6000602082019050818103600083015261168c816114c1565b9050919050565b600060208201905081810360008301526116ac816114e4565b9050919050565b600060208201905081810360008301526116cc81611507565b9050919050565b600060208201905081810360008301526116ec8161152a565b9050919050565b6000602082019050818103600083015261170c8161154d565b9050919050565b6000602082019050818103600083015261172c81611570565b9050919050565b6000602082019050818103600083015261174c81611593565b9050919050565b6000602082019050818103600083015261176c816115b6565b9050919050565b6000602082019050818103600083015261178c816115d9565b9050919050565b600060208201905081810360008301526117ac816115fc565b9050919050565b60006020820190506117c8600083018461161f565b92915050565b60006040820190506117e3600083018561161f565b6117f0602083018461161f565b9392505050565b600060608201905061180c600083018661161f565b611819602083018561161f565b611826604083018461161f565b949350505050565b600060e082019050611843600083018a61162e565b61185060208301896114a3565b61185d60408301886114a3565b61186a606083018761161f565b611877608083018661161f565b61188460a083018561162e565b61189160c083018461162e565b98975050505050505050565b60006118a76118b8565b90506118b38282611a58565b919050565b6000604051905090565b600067ffffffffffffffff8211156118dd576118dc611b16565b5b6118e682611b59565b9050602081019050919050565b600082825260208201905092915050565b600061190f82611a00565b915061191a83611a00565b9250827fffffffffffffffffffffffffffffffffffffffffffffffffffffffffffffffff0382111561194f5761194e611a89565b5b828201905092915050565b600061196582611a00565b915061197083611a00565b92508282101561198357611982611a89565b5b828203905092915050565b600061199982611a0a565b91506119a483611a0a565b9250828210156119b7576119b6611a89565b5b828203905092915050565b60006119cd826119e0565b9050919050565b60008115159050919050565b600073ffffffffffffffffffffffffffffffffffffffff82169050919050565b6000819050919050565b600060ff82169050919050565b82818337600083830152505050565b60006002820490506001821680611a3e57607f821691505b60208210811415611a5257611a51611ae7565b5b50919050565b611a6182611b59565b810181811067ffffffffffffffff82111715611a8057611a7f611b16565b5b80604052505050565b7f4e487b7100000000000000000000000000000000000000000000000000000000600052601160045260246000fd5b7f4e487b7100000000000000000000000000000000000000000000000000000000600052602160045260246000fd5b7f4e487b7100000000000000000000000000000000000000000000000000000000600052602260045260246000fd5b7f4e487b7100000000000000000000000000000000000000000000000000000000600052604160045260246000fd5b600080fd5b600080fd5b600080fd5b600080fd5b6000601f19601f8301169050919050565b7f4e6f7420616e2061637469766520636f6e747261637400000000000000000000600082015250565b7f436f6e747261637420646f65736e277420657869737400000000000000000000600082015250565b7f436f6e747261637420616c726561647920657869737473000000000000000000600082015250565b7f496e73756666696369656e74207365637572697479206465706f73697420616d60008201527f6f756e7400000000000000000000000000000000000000000000000000000000602082015250565b7f496e73756666696369656e742072656e7420616d6f756e740000000000000000600082015250565b7f4f6e6c792074686520726567697374657265642074656e616e742063616e206460008201527f65706f73697420736563757269747920616d6f756e7400000000000000000000602082015250565b7f4f6e6c792074686520726567697374657265642074656e616e742063616e206460008201527f65706f7369742072656e74000000000000000000000000000000000000000000602082015250565b7f536563757269747920616c7265616479206465706f7369746564000000000000600082015250565b7f596f7520617265206e6f7420616c6c6f77656420746f2076696577207468697360008201527f20636f6e74726163740000000000000000000000000000000000000000000000602082015250565b7f52656e742063616e2774206265206c657373207468616e206665652100000000600082015250565b611da5816119c2565b8114611db057600080fd5b50565b611dbc81611a00565b8114611dc757600080fd5b50565b611dd381611a0a565b8114611dde57600080fd5b5056fea2646970667358221220ae61821c3bbf817e7cd49e662b030f8fe05c71d2f533e093abfa679d3e724d8064736f6c63430008050033",
  "immutableReferences": {},
  "source": "// SPDX-License-Identifier: UNLICENSED\r\npragma solidity 0.8.5;\r\n\r\n\r\n/**\r\n* @title Utility super-class to provide basic ownership features\r\n*/\r\ncontract Ownable {\r\n\r\n\t/// Current contract owner\r\n\taddress public owner;\r\n\r\n\tconstructor() {\r\n\t\towner = msg.sender;\r\n\t}\r\n\r\n\t/// Allowed only by the owner\r\n\tmodifier onlyOwner {\r\n\t\trequire(msg.sender == owner, \"Only the owner is allowed to perform this action!\");\r\n\t\t_;\r\n\t}\r\n}\r\n\r\n\r\n/**\r\n * @title Basic contract for TrustedProperties\r\n */\r\ncontract TrustedPropertiesBasicContract is Ownable {\r\n\r\n    /// How much wei/token required as fee for any transaction?\r\n    uint public contractTransactionFee;\r\n\r\n\r\n    enum AgreementStatus {\r\n    \tUninitialized,     // 0\r\n    \tDepositPending,    // 1\r\n    \tActive,            // 2\r\n    \tCompleted,         // 3\r\n    \tTerminated         // 4\r\n    }\r\n\r\n\r\n\r\n\tstruct RentContract {\r\n\r\n\t\tbool doesExist;\r\n\r\n\t\t/// Agreement status (active, complete, terminated, etc)\r\n\t\tAgreementStatus status;\r\n\r\n\t\t/// Property owner account's address\r\n\t\taddress owner;\r\n\r\n\t\t/// Tenant account's address\r\n\t\taddress tenant;\r\n\r\n\t\t/// Security-deposit escrow account's public-key\r\n\t\t// address security_escrow_pubkey;\r\n\r\n\t\t/// Minimum security deposit (in Lamports) to be made by the tenant before the contract begins\r\n\t\tuint security_deposit;\r\n\r\n\t\t/// Rent amount per month (in Lamports)\r\n\t\tuint rent_amount;\r\n\r\n\t\t/// Duration of the agreement (in months)\r\n\t\tuint8 duration;\r\n\r\n\t\t/// Count of monthly payments due\r\n\t\tuint8 remaining_payments;\r\n\r\n\t\t/// Count of monthly payments due\r\n\t\tuint remaining_security_deposit;\r\n\r\n\t\t/// Contract start date (format: yyyy-mm-dd)\r\n\t\tstring start_date;\r\n\r\n\t\t/// Duration (in months) for contract extension requested by Tenant\r\n\t\tuint8 duration_extension_request;\r\n\t}\r\n\r\n    /// Mapping of contract_id to the Contract data\r\n\tmapping (uint => RentContract) private contracts;\r\n\r\n\t/// Mapping of users' balances (user address to amount due)\r\n\tmapping (address => uint) private balances;\r\n\r\n\r\n\t/// Notify whenever a contract is added\r\n    /// @param contract_id ID of the contract\r\n    event ContractAdded(uint contract_id);\r\n\r\n    /// Notify whenever security amount is deposited\r\n    /// @param contract_id ID of the contract\r\n    event SecurityDeposited(uint contract_id, uint amount, uint trxn_fee);\r\n\r\n    /// Notify whenever a rent is paid\r\n    /// @param contract_id ID of the contract\r\n    /// @param amount Rent amount paid\r\n    /// @param trxn_fee Fee deducted for the transaction\r\n    event RentPaid(uint contract_id, uint amount, uint trxn_fee);\r\n\r\n    /// Notify whenever the contract is prematurely terminated\r\n    /// @param contract_id ID of the contract\r\n    event ContractTerminated(uint contract_id);\r\n\r\n    /// Notify whenever the contract is prematurely terminated\r\n    /// @param contract_id ID of the contract\r\n    event ExtraAmountRefunded(uint contract_id, uint amount);\r\n\r\n\r\n    constructor (uint trxnFee) {\r\n        contractTransactionFee = trxnFee;\r\n    }\r\n\r\n\r\n    /// Initialize RentContract by the owner\r\n    function initializeRentContract(uint contract_id, address tenant, uint security_deposit, uint rent_amount, uint8 duration, string memory start_date) public {\r\n        address owner = msg.sender;\r\n\r\n        require(contracts[contract_id].doesExist != true, \"Contract already exists\");\r\n        require(rent_amount > contractTransactionFee, \"Rent can't be less than fee!\");\r\n\r\n        contracts[contract_id] = RentContract({\r\n            doesExist: true,\r\n            status: AgreementStatus.DepositPending,\r\n            owner: owner,\r\n            tenant: tenant,\r\n            security_deposit: security_deposit,\r\n            rent_amount: rent_amount,\r\n            duration: duration,\r\n            start_date: start_date,\r\n            remaining_payments: duration,\r\n            remaining_security_deposit: 0,\r\n            duration_extension_request: 0\r\n        });\r\n\r\n        emit ContractAdded(contract_id);\r\n    }\r\n\r\n\r\n    /// Deposit the security amount from tenant to owner\r\n    function depositSecurity(uint contract_id) public payable {\r\n\r\n        // RentContract contract = contracts[contract_id];\r\n\r\n        require(contracts[contract_id].doesExist == true, \"Contract doesn't exist\");\r\n        require(msg.sender == contracts[contract_id].tenant, \"Only the registered tenant can deposit security amount\");\r\n        require(contracts[contract_id].status == AgreementStatus.DepositPending, \"Security already deposited\");\r\n        require(msg.value >= contracts[contract_id].security_deposit, \"Insufficient security deposit amount\");\r\n\r\n        uint debit_amount = contracts[contract_id].security_deposit;\r\n\r\n        contracts[contract_id].remaining_security_deposit = (debit_amount - contractTransactionFee);\r\n\t\tcontracts[contract_id].status = AgreementStatus.Active;\r\n\r\n\r\n\t\t// Transfer the security deposit amount to owner (minus the platform fee)\r\n\t\t// balances[contracts[contract_id].owner] += (debit_amount - contractTransactionFee);\r\n\r\n\t\t// Refund any extra amount to the tenant\r\n\t\tif (msg.value > debit_amount) {\r\n\t\t    balances[contracts[contract_id].tenant] += (msg.value - debit_amount);\r\n\t\t}\r\n\r\n\t\temit SecurityDeposited(contract_id, contracts[contract_id].security_deposit, contractTransactionFee);\r\n\t\temit ExtraAmountRefunded(contract_id, msg.value - debit_amount);\r\n    }\r\n\r\n\r\n\r\n    /// Deposit the security amount from tenant to owner\r\n    function payRent(uint contract_id) public payable {\r\n\r\n        // RentContract contract = contracts[contract_id];\r\n\r\n        require(contracts[contract_id].doesExist == true, \"Contract doesn't exist\");\r\n        require(msg.sender == contracts[contract_id].tenant, \"Only the registered tenant can deposit rent\");\r\n        require(contracts[contract_id].status == AgreementStatus.Active, \"Not an active contract\");\r\n        require(msg.value >= contracts[contract_id].rent_amount, \"Insufficient rent amount\");\r\n\r\n        contracts[contract_id].remaining_payments -= 1;\r\n        if (contracts[contract_id].remaining_payments == 0) {\r\n            // Contract over\r\n\t\t    contracts[contract_id].status = AgreementStatus.Completed;\r\n\r\n\t\t    // Refund security deposit to the Tenant\r\n\t\t    balances[contracts[contract_id].tenant] += contracts[contract_id].remaining_security_deposit;\r\n        }\r\n\r\n        uint debit_amount = contracts[contract_id].rent_amount;\r\n\r\n\r\n\t\t// Transfer the rent amount to owner (minus the platform fee)\r\n\t\tbalances[contracts[contract_id].owner] += (debit_amount - contractTransactionFee);\r\n\r\n\t\t// Refund any extra amount to the tenant\r\n\t\tif (msg.value > debit_amount) {\r\n\t\t    balances[contracts[contract_id].tenant] += (msg.value - debit_amount);\r\n\t\t}\r\n\r\n\t\temit RentPaid(contract_id, contracts[contract_id].security_deposit, contractTransactionFee);\r\n\t\temit ExtraAmountRefunded(contract_id, msg.value - debit_amount);\r\n    }\r\n\r\n\r\n    /**\r\n     * Allow users to withdraw from their wallet\r\n     * @return whether the withdrawal was successful\r\n     */\r\n    function withdraw() public returns (bool) {\r\n        uint amount = balances[msg.sender];\r\n\r\n        if (amount > 0) {\r\n            balances[msg.sender] = 0;\r\n\r\n            if (!payable(msg.sender).send(amount)) {\r\n                balances[msg.sender] = amount;\r\n                return false;\r\n            }\r\n        }\r\n\r\n        return true;\r\n    }\r\n\r\n\r\n    function getPendingFunds() public view returns (uint) {\r\n        return balances[msg.sender];\r\n    }\r\n\r\n\r\n    function getContractDetails(uint contract_id)\r\n        public view\r\n        returns (uint8 status, address owner, address tenant, uint security_deposit, uint rent_amount, uint8 duration, uint8 remaining_payments) {\r\n\r\n        require(contracts[contract_id].doesExist == true, \"Contract doesn't exist\");\r\n        require(msg.sender == contracts[contract_id].owner ||\r\n            msg.sender == contracts[contract_id].tenant ||\r\n            msg.sender == owner,\r\n            \"You are not allowed to view this contract\");\r\n\r\n        return (uint8(contracts[contract_id].status),\r\n            contracts[contract_id].owner,\r\n            contracts[contract_id].tenant,\r\n            contracts[contract_id].security_deposit,\r\n            contracts[contract_id].rent_amount,\r\n            contracts[contract_id].duration,\r\n            contracts[contract_id].remaining_payments);\r\n    }\r\n\r\n}",
  "sourcePath": "D:\\rentals_ethereum_blockchain\\contracts\\TrustedPropertiesBasicContract.sol",
  "compiler": {
    "name": "solc",
    "version": "0.8.5+commit.a4f2e591.Emscripten.clang"
  },
  "schemaVersion": "3.4.3",
  "updatedAt": "2021-09-18T06:59:24.533Z",
  "networkType": "ethereum",
  "devdoc": {
    "events": {
      "ContractAdded(uint256)": {
        "params": {
          "contract_id": "ID of the contract"
        }
      },
      "ContractTerminated(uint256)": {
        "params": {
          "contract_id": "ID of the contract"
        }
      },
      "ExtraAmountRefunded(uint256,uint256)": {
        "params": {
          "contract_id": "ID of the contract"
        }
      },
      "RentPaid(uint256,uint256,uint256)": {
        "params": {
          "amount": "Rent amount paid",
          "contract_id": "ID of the contract",
          "trxn_fee": "Fee deducted for the transaction"
        }
      },
      "SecurityDeposited(uint256,uint256,uint256)": {
        "params": {
          "contract_id": "ID of the contract"
        }
      }
    },
    "kind": "dev",
    "methods": {
      "withdraw()": {
        "returns": {
          "_0": "whether the withdrawal was successful"
        }
      }
    },
    "title": "Basic contract for TrustedProperties",
    "version": 1
  },
  "userdoc": {
    "events": {
      "ContractAdded(uint256)": {
        "notice": "Notify whenever a contract is added"
      },
      "ContractTerminated(uint256)": {
        "notice": "Notify whenever the contract is prematurely terminated"
      },
      "ExtraAmountRefunded(uint256,uint256)": {
        "notice": "Notify whenever the contract is prematurely terminated"
      },
      "RentPaid(uint256,uint256,uint256)": {
        "notice": "Notify whenever a rent is paid"
      },
      "SecurityDeposited(uint256,uint256,uint256)": {
        "notice": "Notify whenever security amount is deposited"
      }
    },
    "kind": "user",
    "methods": {
      "contractTransactionFee()": {
        "notice": "How much wei/token required as fee for any transaction?"
      },
      "depositSecurity(uint256)": {
        "notice": "Deposit the security amount from tenant to owner"
      },
      "initializeRentContract(uint256,address,uint256,uint256,uint8,string)": {
        "notice": "Initialize RentContract by the owner"
      },
      "owner()": {
        "notice": "Current contract owner"
      },
      "payRent(uint256)": {
        "notice": "Deposit the security amount from tenant to owner"
      },
      "withdraw()": {
        "notice": "Allow users to withdraw from their wallet"
      }
    },
    "version": 1
  }
}