{
  "contractName": "TrustedPropertyListing",
  "abi": [
    {
      "anonymous": false,
      "inputs": [
        {
          "indexed": false,
          "internalType": "address",
          "name": "ownerAddress",
          "type": "address"
        },
        {
          "indexed": false,
          "internalType": "string",
          "name": "property_id",
          "type": "string"
        }
      ],
      "name": "PropertyAdded",
      "type": "event"
    },
    {
      "anonymous": false,
      "inputs": [
        {
          "indexed": false,
          "internalType": "address",
          "name": "ownerAddress",
          "type": "address"
        },
        {
          "indexed": false,
          "internalType": "string",
          "name": "property_id",
          "type": "string"
        }
      ],
      "name": "PropertyRemoved",
      "type": "event"
    },
    {
      "anonymous": false,
      "inputs": [
        {
          "indexed": false,
          "internalType": "string",
          "name": "property_id",
          "type": "string"
        },
        {
          "indexed": false,
          "internalType": "uint256",
          "name": "security_deposit",
          "type": "uint256"
        },
        {
          "indexed": false,
          "internalType": "uint256",
          "name": "rent_amount",
          "type": "uint256"
        }
      ],
      "name": "RentChanged",
      "type": "event"
    },
    {
      "inputs": [],
      "name": "activePropertyCount",
      "outputs": [
        {
          "internalType": "uint32",
          "name": "",
          "type": "uint32"
        }
      ],
      "stateMutability": "view",
      "type": "function"
    },
    {
      "inputs": [],
      "name": "propertyCount",
      "outputs": [
        {
          "internalType": "uint32",
          "name": "",
          "type": "uint32"
        }
      ],
      "stateMutability": "view",
      "type": "function"
    },
    {
      "inputs": [
        {
          "internalType": "string",
          "name": "property_id",
          "type": "string"
        },
        {
          "internalType": "enum TrustedPropertyListing.PropertyType",
          "name": "propertyType",
          "type": "uint8"
        },
        {
          "internalType": "bytes8",
          "name": "unit_number",
          "type": "bytes8"
        },
        {
          "internalType": "bytes6",
          "name": "pincode",
          "type": "bytes6"
        },
        {
          "internalType": "string",
          "name": "location",
          "type": "string"
        },
        {
          "internalType": "enum TrustedPropertyListing.NumberOf",
          "name": "rooms",
          "type": "uint8"
        },
        {
          "internalType": "enum TrustedPropertyListing.NumberOf",
          "name": "bathrooms",
          "type": "uint8"
        },
        {
          "internalType": "enum TrustedPropertyListing.NumberOf",
          "name": "parking",
          "type": "uint8"
        },
        {
          "internalType": "uint256",
          "name": "initialAvailableDate",
          "type": "uint256"
        }
      ],
      "name": "addProperty",
      "outputs": [],
      "stateMutability": "nonpayable",
      "type": "function"
    },
    {
      "inputs": [
        {
          "internalType": "string",
          "name": "property_id",
          "type": "string"
        },
        {
          "internalType": "address",
          "name": "originalOwner",
          "type": "address"
        },
        {
          "internalType": "enum TrustedPropertyListing.PropertyType",
          "name": "propertyType",
          "type": "uint8"
        },
        {
          "internalType": "bytes8",
          "name": "unit_number",
          "type": "bytes8"
        },
        {
          "internalType": "bytes6",
          "name": "pincode",
          "type": "bytes6"
        },
        {
          "internalType": "string",
          "name": "location",
          "type": "string"
        },
        {
          "internalType": "enum TrustedPropertyListing.NumberOf",
          "name": "rooms",
          "type": "uint8"
        },
        {
          "internalType": "enum TrustedPropertyListing.NumberOf",
          "name": "bathrooms",
          "type": "uint8"
        },
        {
          "internalType": "enum TrustedPropertyListing.NumberOf",
          "name": "parking",
          "type": "uint8"
        },
        {
          "internalType": "uint256",
          "name": "initialAvailableDate",
          "type": "uint256"
        }
      ],
      "name": "addPropertyOnBehalfOfOwner",
      "outputs": [],
      "stateMutability": "nonpayable",
      "type": "function"
    },
    {
      "inputs": [
        {
          "internalType": "string",
          "name": "property_id",
          "type": "string"
        }
      ],
      "name": "getProperty",
      "outputs": [
        {
          "components": [
            {
              "internalType": "bool",
              "name": "isActive",
              "type": "bool"
            },
            {
              "internalType": "bool",
              "name": "isAvailable",
              "type": "bool"
            },
            {
              "internalType": "enum TrustedPropertyListing.PropertyType",
              "name": "propertyType",
              "type": "uint8"
            },
            {
              "internalType": "bytes8",
              "name": "unit_number",
              "type": "bytes8"
            },
            {
              "internalType": "bytes6",
              "name": "pincode",
              "type": "bytes6"
            },
            {
              "internalType": "string",
              "name": "location",
              "type": "string"
            },
            {
              "internalType": "enum TrustedPropertyListing.NumberOf",
              "name": "rooms",
              "type": "uint8"
            },
            {
              "internalType": "enum TrustedPropertyListing.NumberOf",
              "name": "bathrooms",
              "type": "uint8"
            },
            {
              "internalType": "enum TrustedPropertyListing.NumberOf",
              "name": "parking",
              "type": "uint8"
            },
            {
              "internalType": "address",
              "name": "originalOwner",
              "type": "address"
            },
            {
              "internalType": "uint256",
              "name": "currentRent",
              "type": "uint256"
            },
            {
              "internalType": "uint256",
              "name": "currentSecurity",
              "type": "uint256"
            }
          ],
          "internalType": "struct TrustedPropertyListing.PropertyView",
          "name": "",
          "type": "tuple"
        }
      ],
      "stateMutability": "view",
      "type": "function"
    },
    {
      "inputs": [
        {
          "internalType": "string",
          "name": "property_id",
          "type": "string"
        },
        {
          "internalType": "uint256",
          "name": "security_deposit",
          "type": "uint256"
        },
        {
          "internalType": "uint256",
          "name": "rent_amount",
          "type": "uint256"
        }
      ],
      "name": "setRent",
      "outputs": [
        {
          "internalType": "bool",
          "name": "",
          "type": "bool"
        }
      ],
      "stateMutability": "nonpayable",
      "type": "function"
    },
    {
      "inputs": [
        {
          "internalType": "string",
          "name": "property_id",
          "type": "string"
        }
      ],
      "name": "isPropertyAvailable",
      "outputs": [
        {
          "internalType": "bool",
          "name": "",
          "type": "bool"
        }
      ],
      "stateMutability": "view",
      "type": "function"
    },
    {
      "inputs": [
        {
          "internalType": "string",
          "name": "property_id",
          "type": "string"
        }
      ],
      "name": "deactivateProperty",
      "outputs": [
        {
          "internalType": "bool",
          "name": "",
          "type": "bool"
        }
      ],
      "stateMutability": "nonpayable",
      "type": "function"
    },
    {
      "inputs": [
        {
          "internalType": "string",
          "name": "property_id",
          "type": "string"
        }
      ],
      "name": "activateProperty",
      "outputs": [
        {
          "internalType": "bool",
          "name": "",
          "type": "bool"
        }
      ],
      "stateMutability": "nonpayable",
      "type": "function"
    }
  ],
  "bytecode": "0x60806040526000600360006101000a81548163ffffffff021916908363ffffffff1602179055506000600360046101000a81548163ffffffff021916908363ffffffff16021790555034801561005457600080fd5b5061241b806100646000396000f3fe608060405234801561001057600080fd5b50600436106100b0576000357c010000000000000000000000000000000000000000000000000000000090048063a6580e0611610083578063a6580e0614610161578063ab331a341461017f578063c361a335146101af578063d328c0f6146101cd578063de504d45146101fd576100b0565b806312366264146100b557806323cb873e146100e55780634bcd664a146101015780636c5a2f3714610131575b600080fd5b6100cf60048036038101906100ca91906115cb565b610219565b6040516100dc9190611cd8565b60405180910390f35b6100ff60048036038101906100fa919061172b565b6103bf565b005b61011b6004803603810190610116919061182d565b6103dc565b6040516101289190611cd8565b60405180910390f35b61014b600480360381019061014691906115cb565b61059e565b6040516101589190611cd8565b60405180910390f35b61016961067c565b6040516101769190611e41565b60405180910390f35b610199600480360381019061019491906115cb565b610692565b6040516101a69190611e1f565b60405180910390f35b6101b7610b0e565b6040516101c49190611e41565b60405180910390f35b6101e760048036038101906101e291906115cb565b610b24565b6040516101f49190611cd8565b60405180910390f35b61021760048036038101906102129190611614565b610d3c565b005b60008160008160405161022c9190611c7a565b908152602001604051809103902060010160019054906101000a900460ff1661028a576040517f08c379a000000000000000000000000000000000000000000000000000000000815260040161028190611d9f565b60405180910390fd5b823373ffffffffffffffffffffffffffffffffffffffff166000826040516102b29190611c7a565b908152602001604051809103902060050160009054906101000a900473ffffffffffffffffffffffffffffffffffffffff1673ffffffffffffffffffffffffffffffffffffffff161461033a576040517f08c379a000000000000000000000000000000000000000000000000000000000815260040161033190611ddf565b60405180910390fd5b6000808560405161034b9190611c7a565b908152602001604051809103902060010160016101000a81548160ff0219169083151502179055506003600481819054906101000a900463ffffffff16809291906103959061203b565b91906101000a81548163ffffffff021916908363ffffffff16021790555050600192505050919050565b6103d189338a8a8a8a8a8a8a8a610d3c565b505050505050505050565b6000836000816040516103ef9190611c7a565b908152602001604051809103902060010160019054906101000a900460ff1661044d576040517f08c379a000000000000000000000000000000000000000000000000000000000815260040161044490611d9f565b60405180910390fd5b843373ffffffffffffffffffffffffffffffffffffffff166000826040516104759190611c7a565b908152602001604051809103902060050160009054906101000a900473ffffffffffffffffffffffffffffffffffffffff1673ffffffffffffffffffffffffffffffffffffffff16146104fd576040517f08c379a00000000000000000000000000000000000000000000000000000000081526004016104f490611ddf565b60405180910390fd5b600160008760405161050f9190611c7a565b908152602001604051809103902060010160016101000a81548160ff0219169083151502179055506040518060600160405280868152602001858152602001428152506001876040516105629190611c7a565b90815260200160405180910390206000820151816000015560208201518160010155604082015181600201559050506001925050509392505050565b600080826040516105af9190611c7a565b908152602001604051809103902060010160019054906101000a900460ff1680156106485750600073ffffffffffffffffffffffffffffffffffffffff166000836040516105fd9190611c7a565b908152602001604051809103902060060160009054906101000a900473ffffffffffffffffffffffffffffffffffffffff1673ffffffffffffffffffffffffffffffffffffffff1614155b8015610675575060006001836040516106619190611c7a565b908152602001604051809103902060010154115b9050919050565b600360049054906101000a900463ffffffff1681565b61069a61133f565b816000816040516106ab9190611c7a565b908152602001604051809103902060010160009054906101000a900460ff16610709576040517f08c379a000000000000000000000000000000000000000000000000000000000815260040161070090611dbf565b60405180910390fd5b6040518061018001604052806000856040516107259190611c7a565b908152602001604051809103902060010160019054906101000a900460ff1615158152602001600073ffffffffffffffffffffffffffffffffffffffff166000866040516107739190611c7a565b908152602001604051809103902060060160009054906101000a900473ffffffffffffffffffffffffffffffffffffffff1673ffffffffffffffffffffffffffffffffffffffff161415151581526020016000856040516107d49190611c7a565b908152602001604051809103902060010160029054906101000a900460ff16600581111561080557610804612124565b5b815260200160008560405161081a9190611c7a565b908152602001604051809103902060010160039054906101000a900478010000000000000000000000000000000000000000000000000277ffffffffffffffffffffffffffffffffffffffffffffffff191681526020016000856040516108819190611c7a565b9081526020016040518091039020600101600b9054906101000a90047a0100000000000000000000000000000000000000000000000000000279ffffffffffffffffffffffffffffffffffffffffffffffffffff191681526020016000856040516108ec9190611c7a565b9081526020016040518091039020600201805461090890612065565b80601f016020809104026020016040519081016040528092919081815260200182805461093490612065565b80156109815780601f1061095657610100808354040283529160200191610981565b820191906000526020600020905b81548152906001019060200180831161096457829003601f168201915b5050505050815260200160008560405161099b9190611c7a565b908152602001604051809103902060030160009054906101000a900460ff1660068111156109cc576109cb612124565b5b81526020016000856040516109e19190611c7a565b908152602001604051809103902060030160019054906101000a900460ff166006811115610a1257610a11612124565b5b8152602001600085604051610a279190611c7a565b908152602001604051809103902060030160029054906101000a900460ff166006811115610a5857610a57612124565b5b8152602001600085604051610a6d9190611c7a565b908152602001604051809103902060050160009054906101000a900473ffffffffffffffffffffffffffffffffffffffff1673ffffffffffffffffffffffffffffffffffffffff168152602001600185604051610aca9190611c7a565b9081526020016040518091039020600101548152602001600185604051610af19190611c7a565b908152602001604051809103902060000154815250915050919050565b600360009054906101000a900463ffffffff1681565b600081600081604051610b379190611c7a565b908152602001604051809103902060010160009054906101000a900460ff16610b95576040517f08c379a0000000000000000000000000000000000000000000000000000000008152600401610b8c90611dbf565b60405180910390fd5b82600081604051610ba69190611c7a565b908152602001604051809103902060010160019054906101000a900460ff1615610c05576040517f08c379a0000000000000000000000000000000000000000000000000000000008152600401610bfc90611d7f565b60405180910390fd5b833373ffffffffffffffffffffffffffffffffffffffff16600082604051610c2d9190611c7a565b908152602001604051809103902060050160009054906101000a900473ffffffffffffffffffffffffffffffffffffffff1673ffffffffffffffffffffffffffffffffffffffff1614610cb5576040517f08c379a0000000000000000000000000000000000000000000000000000000008152600401610cac90611ddf565b60405180910390fd5b6001600086604051610cc79190611c7a565b908152602001604051809103902060010160016101000a81548160ff0219169083151502179055506003600481819054906101000a900463ffffffff1680929190610d11906120c8565b91906101000a81548163ffffffff021916908363ffffffff1602179055505060019350505050919050565b89600081604051610d4d9190611c7a565b908152602001604051809103902060010160009054906101000a900460ff1615610dac576040517f08c379a0000000000000000000000000000000000000000000000000000000008152600401610da390611dff565b60405180910390fd5b600073ffffffffffffffffffffffffffffffffffffffff168a73ffffffffffffffffffffffffffffffffffffffff161415610e1c576040517f08c379a0000000000000000000000000000000000000000000000000000000008152600401610e1390611d5f565b60405180910390fd5b600060026000610e2e8c8c8c8c611306565b8152602001908152602001600020604051610e499190611c91565b908152602001604051809103902060010160009054906101000a900460ff1615610ea8576040517f08c379a0000000000000000000000000000000000000000000000000000000008152600401610e9f90611d3f565b60405180910390fd5b604051806101c001604052808c81526020016001151581526020016001151581526020018a6005811115610edf57610ede612124565b5b81526020018977ffffffffffffffffffffffffffffffffffffffffffffffff191681526020018879ffffffffffffffffffffffffffffffffffffffffffffffffffff19168152602001878152602001866006811115610f4157610f40612124565b5b8152602001856006811115610f5957610f58612124565b5b8152602001846006811115610f7157610f70612124565b5b81526020018381526020018b73ffffffffffffffffffffffffffffffffffffffff168152602001600073ffffffffffffffffffffffffffffffffffffffff1681526020014281525060008c604051610fc99190611c7a565b90815260200160405180910390206000820151816000019080519060200190610ff392919061143a565b5060208201518160010160006101000a81548160ff02191690831515021790555060408201518160010160016101000a81548160ff02191690831515021790555060608201518160010160026101000a81548160ff0219169083600581111561105f5761105e612124565b5b021790555060808201518160010160036101000a81548167ffffffffffffffff021916908378010000000000000000000000000000000000000000000000009004021790555060a082015181600101600b6101000a81548165ffffffffffff02191690837a0100000000000000000000000000000000000000000000000000009004021790555060c082015181600201908051906020019061110292919061143a565b5060e08201518160030160006101000a81548160ff0219169083600681111561112e5761112d612124565b5b02179055506101008201518160030160016101000a81548160ff0219169083600681111561115f5761115e612124565b5b02179055506101208201518160030160026101000a81548160ff021916908360068111156111905761118f612124565b5b021790555061014082015181600401556101608201518160050160006101000a81548173ffffffffffffffffffffffffffffffffffffffff021916908373ffffffffffffffffffffffffffffffffffffffff1602179055506101808201518160060160006101000a81548173ffffffffffffffffffffffffffffffffffffffff021916908373ffffffffffffffffffffffffffffffffffffffff1602179055506101a082015181600701559050506003600081819054906101000a900463ffffffff1680929190611260906120c8565b91906101000a81548163ffffffff021916908363ffffffff160217905550506003600481819054906101000a900463ffffffff16809291906112a1906120c8565b91906101000a81548163ffffffff021916908363ffffffff160217905550507fc15ed0866d26bb9c29e947585dfb7d5ce1bef33ccf31dd72b3b65df960eb02458a8c6040516112f1929190611ca8565b60405180910390a15050505050505050505050565b60008484848460405160200161131f9493929190611cf3565b604051602081830303815290604052805190602001209050949350505050565b6040518061018001604052806000151581526020016000151581526020016000600581111561137157611370612124565b5b8152602001600077ffffffffffffffffffffffffffffffffffffffffffffffff19168152602001600079ffffffffffffffffffffffffffffffffffffffffffffffffffff1916815260200160608152602001600060068111156113d7576113d6612124565b5b8152602001600060068111156113f0576113ef612124565b5b81526020016000600681111561140957611408612124565b5b8152602001600073ffffffffffffffffffffffffffffffffffffffff16815260200160008152602001600081525090565b82805461144690612065565b90600052602060002090601f01602090048101928261146857600085556114af565b82601f1061148157805160ff19168380011785556114af565b828001600101855582156114af579182015b828111156114ae578251825591602001919060010190611493565b5b5090506114bc91906114c0565b5090565b5b808211156114d95760008160009055506001016114c1565b5090565b60006114f06114eb84611e81565b611e5c565b90508281526020810184848401111561150c5761150b6121b6565b5b611517848285611ff9565b509392505050565b60008135905061152e81612369565b92915050565b60008135905061154381612380565b92915050565b60008135905061155881612397565b92915050565b60008135905061156d816123ae565b92915050565b600081359050611582816123be565b92915050565b600082601f83011261159d5761159c6121b1565b5b81356115ad8482602086016114dd565b91505092915050565b6000813590506115c5816123ce565b92915050565b6000602082840312156115e1576115e06121c0565b5b600082013567ffffffffffffffff8111156115ff576115fe6121bb565b5b61160b84828501611588565b91505092915050565b6000806000806000806000806000806101408b8d031215611638576116376121c0565b5b60008b013567ffffffffffffffff811115611656576116556121bb565b5b6116628d828e01611588565b9a505060206116738d828e0161151f565b99505060406116848d828e01611573565b98505060606116958d828e01611549565b97505060806116a68d828e01611534565b96505060a08b013567ffffffffffffffff8111156116c7576116c66121bb565b5b6116d38d828e01611588565b95505060c06116e48d828e0161155e565b94505060e06116f58d828e0161155e565b9350506101006117078d828e0161155e565b9250506101206117198d828e016115b6565b9150509295989b9194979a5092959850565b60008060008060008060008060006101208a8c03121561174e5761174d6121c0565b5b60008a013567ffffffffffffffff81111561176c5761176b6121bb565b5b6117788c828d01611588565b99505060206117898c828d01611573565b985050604061179a8c828d01611549565b97505060606117ab8c828d01611534565b96505060808a013567ffffffffffffffff8111156117cc576117cb6121bb565b5b6117d88c828d01611588565b95505060a06117e98c828d0161155e565b94505060c06117fa8c828d0161155e565b93505060e061180b8c828d0161155e565b92505061010061181d8c828d016115b6565b9150509295985092959850929598565b600080600060608486031215611846576118456121c0565b5b600084013567ffffffffffffffff811115611864576118636121bb565b5b61187086828701611588565b9350506020611881868287016115b6565b9250506040611892868287016115b6565b9150509250925092565b6118a581611eff565b82525050565b6118b481611eff565b82525050565b6118c381611f11565b82525050565b6118d281611f11565b82525050565b6118e181611f1d565b82525050565b6118f081611f1d565b82525050565b6118ff81611f49565b82525050565b61190e81611f49565b82525050565b61191d81611fd5565b82525050565b61192c81611fe7565b82525050565b61193b81611fe7565b82525050565b600061194c82611ec7565b6119568185611ed2565b9350611966818560208601612008565b61196f816121c5565b840191505092915050565b600061198582611ec7565b61198f8185611ee3565b935061199f818560208601612008565b6119a8816121c5565b840191505092915050565b60006119be82611ec7565b6119c88185611ef4565b93506119d8818560208601612008565b80840191505092915050565b600081546119f181612065565b6119fb8186611ef4565b94506001821660008114611a165760018114611a2757611a5a565b60ff19831686528186019350611a5a565b611a3085611eb2565b60005b83811015611a5257815481890152600182019150602081019050611a33565b838801955050505b50505092915050565b6000611a70601883611ee3565b9150611a7b826121d6565b602082019050919050565b6000611a93602383611ee3565b9150611a9e826121ff565b604082019050919050565b6000611ab6602183611ee3565b9150611ac18261224e565b604082019050919050565b6000611ad9601c83611ee3565b9150611ae48261229d565b602082019050919050565b6000611afc601783611ee3565b9150611b07826122c6565b602082019050919050565b6000611b1f601f83611ee3565b9150611b2a826122ef565b602082019050919050565b6000611b42601783611ee3565b9150611b4d82612318565b602082019050919050565b600061018083016000830151611b7160008601826118ba565b506020830151611b8460208601826118ba565b506040830151611b976040860182611923565b506060830151611baa60608601826118f6565b506080830151611bbd60808601826118d8565b5060a083015184820360a0860152611bd58282611941565b91505060c0830151611bea60c0860182611914565b5060e0830151611bfd60e0860182611914565b50610100830151611c12610100860182611914565b50610120830151611c2761012086018261189c565b50610140830151611c3c610140860182611c5c565b50610160830151611c51610160860182611c5c565b508091505092915050565b611c6581611fbb565b82525050565b611c7481611fc5565b82525050565b6000611c8682846119b3565b915081905092915050565b6000611c9d82846119e4565b915081905092915050565b6000604082019050611cbd60008301856118ab565b8181036020830152611ccf818461197a565b90509392505050565b6000602082019050611ced60008301846118c9565b92915050565b6000608082019050611d086000830187611932565b611d156020830186611905565b611d2260408301856118e7565b8181036060830152611d34818461197a565b905095945050505050565b60006020820190508181036000830152611d5881611a63565b9050919050565b60006020820190508181036000830152611d7881611a86565b9050919050565b60006020820190508181036000830152611d9881611aa9565b9050919050565b60006020820190508181036000830152611db881611acc565b9050919050565b60006020820190508181036000830152611dd881611aef565b9050919050565b60006020820190508181036000830152611df881611b12565b9050919050565b60006020820190508181036000830152611e1881611b35565b9050919050565b60006020820190508181036000830152611e398184611b58565b905092915050565b6000602082019050611e566000830184611c6b565b92915050565b6000611e66611e77565b9050611e728282612097565b919050565b6000604051905090565b600067ffffffffffffffff821115611e9c57611e9b612182565b5b611ea5826121c5565b9050602081019050919050565b60008190508160005260206000209050919050565b600081519050919050565b600082825260208201905092915050565b600082825260208201905092915050565b600081905092915050565b6000611f0a82611f9b565b9050919050565b60008115159050919050565b60007fffffffffffff000000000000000000000000000000000000000000000000000082169050919050565b60007fffffffffffffffff00000000000000000000000000000000000000000000000082169050919050565b6000819050611f8382612341565b919050565b6000819050611f9682612355565b919050565b600073ffffffffffffffffffffffffffffffffffffffff82169050919050565b6000819050919050565b600063ffffffff82169050919050565b6000611fe082611f75565b9050919050565b6000611ff282611f88565b9050919050565b82818337600083830152505050565b60005b8381101561202657808201518184015260208101905061200b565b83811115612035576000848401525b50505050565b600061204682611fc5565b9150600082141561205a576120596120f5565b5b600182039050919050565b6000600282049050600182168061207d57607f821691505b6020821081141561209157612090612153565b5b50919050565b6120a0826121c5565b810181811067ffffffffffffffff821117156120bf576120be612182565b5b80604052505050565b60006120d382611fc5565b915063ffffffff8214156120ea576120e96120f5565b5b600182019050919050565b7f4e487b7100000000000000000000000000000000000000000000000000000000600052601160045260246000fd5b7f4e487b7100000000000000000000000000000000000000000000000000000000600052602160045260246000fd5b7f4e487b7100000000000000000000000000000000000000000000000000000000600052602260045260246000fd5b7f4e487b7100000000000000000000000000000000000000000000000000000000600052604160045260246000fd5b600080fd5b600080fd5b600080fd5b600080fd5b6000601f19601f8301169050919050565b7f4475706c69636174652070726f70657274792068617368210000000000000000600082015250565b7f496e76616c6964206f726967696e616c4f776e6572206164647265737320283060008201527f7830290000000000000000000000000000000000000000000000000000000000602082015250565b7f50726f706572747920697320616c72656164792061637469766520657869737460008201527f7300000000000000000000000000000000000000000000000000000000000000602082015250565b7f50726f706572747920697320696e2d6163746976652065786973747300000000600082015250565b7f50726f706572747920646f6573206e6f74206578697374000000000000000000600082015250565b7f4f6e6c792070726f7065727479206f776e65722063616e20646f207468697300600082015250565b7f50726f706572747920616c726561647920657869737473000000000000000000600082015250565b6007811061235257612351612124565b5b50565b6006811061236657612365612124565b5b50565b61237281611eff565b811461237d57600080fd5b50565b61238981611f1d565b811461239457600080fd5b50565b6123a081611f49565b81146123ab57600080fd5b50565b600781106123bb57600080fd5b50565b600681106123cb57600080fd5b50565b6123d781611fbb565b81146123e257600080fd5b5056fea264697066735822122054b6d59fc3f80e41002cbdc9bd6cb7d1cdec7ce057f09e8c859b25db8b23052364736f6c63430008050033",
  "immutableReferences": {},
  "source": "// SPDX-License-Identifier: UNLICENSED\r\npragma solidity 0.8.5;\r\n\r\n\r\n/**\r\n* @title Utility super-class to provide basic ownership features\r\n*/\r\ncontract Ownable {\r\n\r\n\t/// Current smart-contract owner/admin\r\n\taddress payable public admin;\r\n\r\n\tconstructor() {\r\n\t\tadmin = payable(msg.sender);\r\n\t}\r\n\r\n\t/// Allowed only by the admin\r\n\tmodifier onlyAdmin {\r\n\t\trequire(msg.sender == admin, \"Only the admin is allowed to do this!\");\r\n\t\t_;\r\n\t}\r\n}\r\n\r\n\r\n\r\n\r\n/**\r\n * @title Utility contract to store a property listing\r\n */\r\ncontract TrustedPropertyListing {\r\n\r\n    enum PropertyType {\r\n        House,                         //  0 House\r\n        ApartmentAndUnit,              //  1 Apartment and unit\r\n        Townhouse,                     //  2 Townhouse\r\n        Villa,                         //  3 Villa\r\n        BlockOfUnits,                  //  4 Block of units (?)\r\n        RetirementLiving               //  5 Retirement living\r\n    }\r\n\r\n    // The number of rooms, bathrooms, parking spaces, etc.\r\n    enum NumberOf {\r\n        Zero,                          //  0 Zero\r\n        One,                           //  1 One\r\n        Two,                           //  2 Two\r\n        Three,                         //  3 Three\r\n        Four,                          //  4 Four\r\n        Five,                          //  5 Five\r\n        SixOrMore                      //  6 Six or more\r\n    }\r\n\r\n\r\n    // TODO: Require a legal property-document-id to verify property\r\n    // TODO: Add floor (uint8)\r\n    // TODO: Add country_code (gives stack too deep error - max 16 local variables allowed in a function)\r\n    struct Property {\r\n        string id;\r\n        bool doesExist;\r\n        bool isActive;\r\n        PropertyType propertyType;\r\n        bytes8 unit_number;            // House/Apartment/Flat number\r\n        bytes6 pincode;\r\n        string location;\r\n        NumberOf rooms;\r\n        NumberOf bathrooms;\r\n        NumberOf parking;\r\n        // string comments;\r\n        uint initialAvailableDate;\r\n        address originalOwner;\r\n        address currentTenant;\r\n        uint256 postedAt;               // Date of listing\r\n    }\r\n\r\n    /// Public view of a listed property\r\n    struct PropertyView {\r\n        bool isActive;\r\n        bool isAvailable;\r\n        PropertyType propertyType;\r\n        bytes8 unit_number;            // House/Apartment/Flat number\r\n        bytes6 pincode;\r\n        string location;\r\n        NumberOf rooms;\r\n        NumberOf bathrooms;\r\n        NumberOf parking;\r\n        address originalOwner;\r\n        uint currentRent;\r\n        uint currentSecurity;\r\n    }\r\n\r\n\r\n    /// Struct to hold the property rent details\r\n    struct PropertyRent {\r\n        uint security_deposit;                  // Initial security deposit required (in wei)\r\n\t\tuint rent_amount;                       // Rent amount per month (in wei)\r\n\t\tuint256 updatedAt;                      // Rent update timestamp\r\n    }\r\n\r\n\r\n    /// Mapping of property_id to the Property data\r\n    /// TODO: Make private\r\n    mapping (string => Property) internal properties;\r\n\r\n    /// Mapping of property_id to it's Rent data\r\n    /// TODO: Make private\r\n    mapping (string => PropertyRent) internal propertyRents;\r\n\r\n    /// Mapping of hash of a property to property_id\r\n    mapping (bytes32 => string) private propertyHashes;\r\n\r\n    uint32 public propertyCount = 0;\r\n    uint32 public activePropertyCount = 0;\r\n\r\n\r\n    event PropertyAdded(address ownerAddress, string property_id);\r\n    event PropertyRemoved(address ownerAddress, string property_id);\r\n    event RentChanged(string property_id, uint security_deposit, uint rent_amount);\r\n\r\n\r\n    modifier propertyOwnerOnly(string memory property_id) {\r\n        require(properties[property_id].originalOwner == msg.sender, \"Only property owner can do this\");\r\n        _;\r\n    }\r\n\r\n    modifier propertyExists(string memory property_id) {\r\n        require(properties[property_id].doesExist, \"Property does not exist\");\r\n        _;\r\n    }\r\n\r\n    modifier propertyDoesNotExist(string memory property_id) {\r\n        require(!properties[property_id].doesExist, \"Property already exists\");\r\n        _;\r\n    }\r\n\r\n    modifier propertyIsActive(string memory property_id) {\r\n        require(properties[property_id].isActive, \"Property is in-active exists\");\r\n        _;\r\n    }\r\n\r\n    modifier propertyNotActive(string memory property_id) {\r\n        require(!properties[property_id].isActive, \"Property is already active exists\");\r\n        _;\r\n    }\r\n\r\n\r\n    /// Return the hash of a property\r\n    // TODO: Add country_code, unique legal property-document-id, etc\r\n    function _propertyHash(\r\n        PropertyType propertyType,\r\n        bytes8 unit_number,\r\n        bytes6 pincode,\r\n        string memory location\r\n    ) private pure returns (bytes32) {\r\n        return keccak256(abi.encode(propertyType, unit_number, pincode, location));\r\n    }\r\n\r\n\r\n    /// Add new property\r\n    function addProperty (\r\n        string memory property_id,\r\n        PropertyType propertyType,\r\n        bytes8 unit_number,\r\n        bytes6 pincode,\r\n        string memory location,\r\n        NumberOf rooms,\r\n        NumberOf bathrooms,\r\n        NumberOf parking,\r\n        // string memory comments,\r\n        uint initialAvailableDate)\r\n    public\r\n    {\r\n        addPropertyOnBehalfOfOwner({\r\n            property_id: property_id,\r\n            originalOwner: msg.sender,\r\n            location: location,\r\n            propertyType: propertyType,\r\n            unit_number: unit_number,\r\n            pincode: pincode,\r\n            rooms: rooms,\r\n            bathrooms: bathrooms,\r\n            parking: parking,\r\n            // comments: comments,\r\n            initialAvailableDate: initialAvailableDate\r\n        });\r\n    }\r\n\r\n\r\n    /// Add new property on behalf of another owner\r\n    function addPropertyOnBehalfOfOwner (\r\n        string memory property_id,\r\n        address originalOwner,\r\n        PropertyType propertyType,\r\n        bytes8 unit_number,\r\n        bytes6 pincode,\r\n        string memory location,\r\n        NumberOf rooms,\r\n        NumberOf bathrooms,\r\n        NumberOf parking,\r\n        // string memory comments,\r\n        uint initialAvailableDate)\r\n    public\r\n    propertyDoesNotExist(property_id)\r\n    {\r\n        require(originalOwner != address(0x0), \"Invalid originalOwner address (0x0)\");\r\n        require(!properties[propertyHashes[_propertyHash(propertyType, unit_number, pincode, location)]].doesExist, \"Duplicate property hash!\");\r\n\r\n        properties[property_id] = Property({\r\n            id: property_id,\r\n            doesExist: true,\r\n            isActive: true,\r\n            originalOwner: originalOwner,\r\n            location: location,\r\n            propertyType: propertyType,\r\n            unit_number: unit_number,\r\n            pincode: pincode,\r\n            rooms: rooms,\r\n            bathrooms: bathrooms,\r\n            parking: parking,\r\n            // comments: comments,\r\n            initialAvailableDate: initialAvailableDate,\r\n            currentTenant: address(0x0),\r\n            postedAt: block.timestamp\r\n        });\r\n\r\n        propertyCount++;\r\n        activePropertyCount++;\r\n\r\n        emit PropertyAdded(originalOwner, property_id);\r\n    }\r\n\r\n\r\n    /// Get the property details\r\n    /// @dev anyone can get the property details\r\n    function getProperty (\r\n        string memory property_id)\r\n    public\r\n    view\r\n    propertyExists(property_id)\r\n    returns (PropertyView memory)\r\n    {\r\n        return PropertyView({\r\n            isActive: properties[property_id].isActive,\r\n            isAvailable: properties[property_id].currentTenant != address(0x0),\r\n            location: properties[property_id].location,\r\n            propertyType: properties[property_id].propertyType,\r\n            unit_number: properties[property_id].unit_number,\r\n            pincode: properties[property_id].pincode,\r\n            rooms: properties[property_id].rooms,\r\n            bathrooms: properties[property_id].bathrooms,\r\n            parking: properties[property_id].parking,\r\n            originalOwner: properties[property_id].originalOwner,\r\n            currentRent: propertyRents[property_id].rent_amount,\r\n            currentSecurity: propertyRents[property_id].security_deposit\r\n        });\r\n    }\r\n\r\n\r\n    /// Set rent for the property\r\n    /// @dev Only the property owner can set rent\r\n    function setRent (\r\n        string memory property_id,\r\n        uint security_deposit,\r\n        uint rent_amount)\r\n    public\r\n    propertyIsActive(property_id)\r\n    propertyOwnerOnly(property_id)\r\n    returns (bool)\r\n    {\r\n        properties[property_id].isActive = true;\r\n        propertyRents[property_id] = PropertyRent({\r\n            security_deposit: security_deposit,\r\n    \t\trent_amount: rent_amount,\r\n    \t\tupdatedAt: block.timestamp\r\n        });\r\n        return true;\r\n    }\r\n\r\n\r\n    /// Is the property available for renting?\r\n    /// @dev Returns true if property is active, not currently rented and the rent amount is set\r\n    function isPropertyAvailable (\r\n        string memory property_id)\r\n    public\r\n    view\r\n    returns (bool)\r\n    {\r\n        return properties[property_id].isActive && properties[property_id].currentTenant != address(0x0) && propertyRents[property_id].rent_amount > 0;\r\n    }\r\n\r\n\r\n    //only original owner can mark property as in-active\r\n    function deactivateProperty (\r\n        string memory property_id)\r\n    public\r\n    propertyIsActive(property_id)\r\n    propertyOwnerOnly(property_id)\r\n    returns (bool)\r\n    {\r\n        properties[property_id].isActive = false;\r\n        activePropertyCount--;\r\n        return true;\r\n    }\r\n\r\n\r\n    //only original owner can mark property as active\r\n    function activateProperty (\r\n        string memory property_id)\r\n    public\r\n    propertyExists(property_id)\r\n    propertyNotActive(property_id)\r\n    propertyOwnerOnly(property_id)\r\n    returns (bool)\r\n    {\r\n        properties[property_id].isActive = true;\r\n        activePropertyCount++;\r\n        return true;\r\n    }\r\n\r\n}\r\n\r\n\r\n\r\n\r\n/**\r\n * @title Basic contract for TrustedProperties\r\n */\r\ncontract TrustedPropertiesBasicRentContract is TrustedPropertyListing, Ownable {\r\n\r\n    /// How much wei/token required as fee for any transaction?\r\n    uint public contractTransactionFee;\r\n\r\n    enum AgreementStatus {\r\n    \tUninitialized,     // 0\r\n    \tDepositPending,    // 1\r\n    \tActive,            // 2\r\n    \tCompleted,         // 3\r\n    \tTerminated         // 4\r\n    }\r\n\r\n\r\n\tstruct RentContract {\r\n\r\n\t\tbool doesExist;\r\n\r\n\t\tstring property_id;\r\n\t\tAgreementStatus status;\r\n\t\taddress owner;                          // Property owner address\r\n\t\taddress tenant;                         // Tenant address\r\n\t\tuint security_deposit;                  // Initial security deposit required (in wei)\r\n\t\tuint rent_amount;                       // Rent amount per month (in wei)\r\n\t\tuint8 duration;                         // Duration of the agreement (in months)\r\n\t\tuint8 remaining_payments;               // Count of monthly payments due\r\n\t\tuint security_deposit_balance;          // Current balance of security deposit\r\n        bytes10 start_date;                     // Contract start date (format: yyyy-mm-dd)\r\n\t\tuint8 duration_extension_request;       // Duration (in months) for contract extension requested by Tenant\r\n\t\tuint256 createdAt;                      // Contract creation timestamp\r\n\t}\r\n\r\n    /// Mapping of contract_id to the Contract data\r\n\tmapping (uint => RentContract) private contracts;\r\n\r\n\t/// Mapping of users' balances (user address to amount due)\r\n\tmapping (address => uint) private balances;\r\n\r\n\r\n\r\n\t// ----------------- EVENTS --------------------------------------\r\n\r\n\t/// Notify whenever a contract is added\r\n    /// @param contract_id ID of the contract\r\n    event ContractAdded(uint contract_id);\r\n\r\n    /// Notify whenever security amount is deposited\r\n    /// @param contract_id ID of the contract\r\n    event SecurityDeposited(uint contract_id, uint amount, uint trxn_fee);\r\n\r\n    /// Notify whenever a rent is paid\r\n    /// @param contract_id ID of the contract\r\n    /// @param amount Rent amount paid\r\n    /// @param trxn_fee Fee deducted for the transaction\r\n    event RentPaid(uint contract_id, uint amount, uint trxn_fee);\r\n\r\n    /// Notify whenever the contract is prematurely terminated\r\n    /// @param contract_id ID of the contract\r\n    event ContractTerminated(uint contract_id);\r\n\r\n    /// Notify whenever the contract is prematurely terminated\r\n    /// @param contract_id ID of the contract\r\n    event ExtraAmountRefunded(uint contract_id, uint amount);\r\n\r\n    /// Notify whenever a request to extend the contract duration is made by the tenant\r\n    /// @param contract_id ID of the contract\r\n    /// @param extension_duration The number of months for which thetenant wants to extend the contract\r\n    event ContractDurationExtensionRequested(uint contract_id, uint8 extension_duration);\r\n\r\n    /// Notify whenever a request to extend the contract duration is confirmed by the owner\r\n    /// @param contract_id ID of the contract\r\n    /// @param extension_duration The number of months for which the contract is extended\r\n    event ContractDurationExtended(uint contract_id, uint8 extension_duration);\r\n\r\n\r\n\r\n\t// ----------------- MODIFIERS --------------------------------------\r\n\r\n    modifier contractExists(uint contract_id) {\r\n        require(contracts[contract_id].doesExist, \"Contract does not exist\");\r\n        _;\r\n    }\r\n\r\n    modifier contractDoesNotExist(uint contract_id) {\r\n        require(!contracts[contract_id].doesExist, \"Contract already exists\");\r\n        _;\r\n    }\r\n\r\n    modifier ownerOnly(uint contract_id) {\r\n        require(msg.sender == contracts[contract_id].owner, \"Only the registered property owner is allowed to do this\");\r\n        _;\r\n    }\r\n\r\n    modifier tenantOnly(uint contract_id) {\r\n        require(msg.sender == contracts[contract_id].tenant, \"Only the registered tenant is allowed to do this\");\r\n        _;\r\n    }\r\n\r\n    modifier activeContractOnly(uint contract_id) {\r\n        require(contracts[contract_id].status == AgreementStatus.Active, \"This is only allowed for active contracts\");\r\n        _;\r\n    }\r\n\r\n\r\n\r\n\t// ----------------- METHODS --------------------------------------\r\n\r\n    constructor (uint trxnFee) {\r\n        contractTransactionFee = trxnFee;\r\n    }\r\n\r\n\r\n    /// Initialize RentContract by the owner\r\n    function initializeRentContract(\r\n        uint contract_id,\r\n        string memory property_id,\r\n        address tenant,\r\n        uint8 duration,\r\n        bytes10 start_date\r\n    )\r\n    public\r\n    propertyOwnerOnly(property_id)\r\n    contractDoesNotExist(contract_id) {\r\n\r\n        require(isPropertyAvailable(property_id), \"Property not available for renting\");\r\n        require(propertyRents[property_id].rent_amount > contractTransactionFee, \"Rent must be more than fee!\");\r\n        require(propertyRents[property_id].security_deposit > contractTransactionFee, \"Security deposit must be more than fee!\");\r\n\r\n        contracts[contract_id] = RentContract({\r\n            doesExist: true,\r\n            property_id: property_id,\r\n            status: AgreementStatus.DepositPending,\r\n            owner: msg.sender,\r\n            tenant: tenant,\r\n            security_deposit: propertyRents[property_id].security_deposit,\r\n            rent_amount: propertyRents[property_id].rent_amount,\r\n            duration: duration,\r\n            start_date: start_date,\r\n            remaining_payments: duration,\r\n            security_deposit_balance: 0,\r\n            duration_extension_request: 0,\r\n            createdAt: block.timestamp\r\n        });\r\n\r\n        emit ContractAdded(contract_id);\r\n    }\r\n\r\n\r\n    /// Deposit the security amount from tenant to owner\r\n    /// @param contract_id The id of the contract to deposit security amount for\r\n    function depositSecurity(uint contract_id)\r\n    public\r\n    payable\r\n    contractExists(contract_id)\r\n    tenantOnly(contract_id) {\r\n\r\n        // RentContract contract = contracts[contract_id];\r\n\r\n        require(contracts[contract_id].status == AgreementStatus.DepositPending, \"Security already deposited\");\r\n        require(msg.value >= contracts[contract_id].security_deposit, \"Insufficient security deposit amount\");\r\n\r\n        uint debit_amount = contracts[contract_id].security_deposit;\r\n\r\n        contracts[contract_id].security_deposit_balance = (debit_amount - contractTransactionFee);\r\n\t\tcontracts[contract_id].status = AgreementStatus.Active;\r\n\r\n\r\n\t\t// Transfer the security deposit amount to owner (minus the platform fee)\r\n\t\t// balances[contracts[contract_id].owner] += (debit_amount - contractTransactionFee);\r\n\r\n\t\t// Refund any extra amount to the tenant\r\n\t\tif (msg.value > debit_amount) {\r\n\t\t    balances[contracts[contract_id].tenant] += (msg.value - debit_amount);\r\n\t\t}\r\n\r\n\t\temit SecurityDeposited(contract_id, contracts[contract_id].security_deposit, contractTransactionFee);\r\n\t\temit ExtraAmountRefunded(contract_id, msg.value - debit_amount);\r\n    }\r\n\r\n\r\n\r\n    /// Deposit the security amount from tenant to owner\r\n    /// @param contract_id The id of the contract to pay rent for\r\n    /// @dev only Tenant can pay the rent\r\n    function payRent(uint contract_id)\r\n    public\r\n    payable\r\n    contractExists(contract_id)\r\n    tenantOnly(contract_id)\r\n    activeContractOnly(contract_id) {\r\n\r\n        // RentContract contract = contracts[contract_id];\r\n\r\n        require(msg.value >= contracts[contract_id].rent_amount, \"Insufficient rent amount\");\r\n\r\n        contracts[contract_id].remaining_payments -= 1;\r\n        if (contracts[contract_id].remaining_payments == 0) {\r\n            // Contract over\r\n\t\t    contracts[contract_id].status = AgreementStatus.Completed;\r\n\r\n\t\t    // Refund security deposit to the Tenant\r\n\t\t    balances[contracts[contract_id].tenant] += contracts[contract_id].security_deposit_balance;\r\n        }\r\n\r\n        uint debit_amount = contracts[contract_id].rent_amount;\r\n\r\n\r\n\t\t// Transfer the rent amount to owner (minus the platform fee)\r\n\t\tbalances[contracts[contract_id].owner] += (debit_amount - contractTransactionFee);\r\n\r\n\t\t// Refund any extra amount to the tenant\r\n\t\tif (msg.value > debit_amount) {\r\n\t\t    balances[contracts[contract_id].tenant] += (msg.value - debit_amount);\r\n\t\t}\r\n\r\n\t\temit RentPaid(contract_id, contracts[contract_id].security_deposit, contractTransactionFee);\r\n\t\temit ExtraAmountRefunded(contract_id, msg.value - debit_amount);\r\n    }\r\n\r\n\r\n    /**\r\n     * Allow users to withdraw from their wallet\r\n     * @return whether the withdrawal was successful\r\n     */\r\n    function withdraw() public returns (bool) {\r\n        uint amount = balances[msg.sender];\r\n\r\n        if (amount > 0) {\r\n            balances[msg.sender] = 0;\r\n\r\n            if (!payable(msg.sender).send(amount)) {\r\n                balances[msg.sender] = amount;\r\n                return false;\r\n            }\r\n        }\r\n\r\n        return true;\r\n    }\r\n\r\n\r\n    /// Get the funds available in self's wallet\r\n    function getPendingFunds() public view returns (uint) {\r\n        return balances[msg.sender];\r\n    }\r\n\r\n\r\n    /// Get the details of a contract\r\n    /// @param contract_id The id of the contract to get details of\r\n    function getContractDetails(uint contract_id)\r\n        public\r\n        view\r\n        contractExists(contract_id)\r\n        returns ( RentContract memory) {\r\n\r\n        require(msg.sender == contracts[contract_id].owner ||\r\n            msg.sender == contracts[contract_id].tenant ||\r\n            msg.sender == admin,\r\n            \"You are not allowed to view this contract\");\r\n\r\n        return RentContract({\r\n            doesExist: true,\r\n            property_id: contracts[contract_id].property_id,\r\n            status: contracts[contract_id].status,\r\n            owner: contracts[contract_id].owner,\r\n            tenant: contracts[contract_id].tenant,\r\n            security_deposit: contracts[contract_id].security_deposit,\r\n            rent_amount: contracts[contract_id].rent_amount,\r\n            duration: contracts[contract_id].duration,\r\n            remaining_payments: contracts[contract_id].remaining_payments,\r\n            security_deposit_balance: contracts[contract_id].security_deposit_balance,\r\n            start_date: contracts[contract_id].start_date,\r\n            duration_extension_request: contracts[contract_id].duration_extension_request,\r\n            createdAt: contracts[contract_id].createdAt\r\n        });\r\n    }\r\n\r\n\r\n    /// Request to extend the contract duration - from tenant to owner\r\n    /// @param contract_id The id of the contract to to pay rent for\r\n    /// @param extension_duration The number of months for which thetenant wants to extend the contract\r\n    /// @dev only Tenant can make the request\r\n    function extendContractDurationRequest(uint contract_id, uint8 extension_duration)\r\n    public\r\n    contractExists(contract_id)\r\n    tenantOnly(contract_id)\r\n    activeContractOnly(contract_id) {\r\n\r\n        contracts[contract_id].duration_extension_request = extension_duration;\r\n\r\n        emit ContractDurationExtensionRequested(contract_id, extension_duration);\r\n    }\r\n\r\n\r\n\t/// Request to extend the contract duration - from tenant to owner\r\n    /// @param contract_id The id of the contract to to pay rent for\r\n    /// @param extension_duration The number of months for which thetenant wants to extend the contract\r\n    /// @dev only Property Owner can make the request\r\n    function extendContractDurationConfirm(uint contract_id, uint8 extension_duration)\r\n    public\r\n    contractExists(contract_id)\r\n    ownerOnly(contract_id)\r\n    activeContractOnly(contract_id) {\r\n\r\n        require(contracts[contract_id].duration_extension_request == extension_duration, \"Extension-duration does not match the what is requested by the tenant\");\r\n\r\n        contracts[contract_id].duration += extension_duration;\r\n        contracts[contract_id].remaining_payments += extension_duration;\r\n        contracts[contract_id].duration_extension_request = 0;\r\n\r\n        emit ContractDurationExtended(contract_id, extension_duration);\r\n    }\r\n\r\n}",
  "sourcePath": "D:\\rentals_ethereum_blockchain\\contracts\\TrustedPropertiesBasicRentContract.sol",
  "compiler": {
    "name": "solc",
    "version": "0.8.5+commit.a4f2e591.Emscripten.clang"
  },
  "schemaVersion": "3.4.3",
  "updatedAt": "2021-09-19T17:36:42.891Z",
  "devdoc": {
    "kind": "dev",
    "methods": {
      "getProperty(string)": {
        "details": "anyone can get the property details"
      },
      "isPropertyAvailable(string)": {
        "details": "Returns true if property is active, not currently rented and the rent amount is set"
      },
      "setRent(string,uint256,uint256)": {
        "details": "Only the property owner can set rent"
      }
    },
    "title": "Utility contract to store a property listing",
    "version": 1
  },
  "userdoc": {
    "kind": "user",
    "methods": {
      "addProperty(string,uint8,bytes8,bytes6,string,uint8,uint8,uint8,uint256)": {
        "notice": "Add new property"
      },
      "addPropertyOnBehalfOfOwner(string,address,uint8,bytes8,bytes6,string,uint8,uint8,uint8,uint256)": {
        "notice": "Add new property on behalf of another owner"
      },
      "getProperty(string)": {
        "notice": "Get the property details"
      },
      "isPropertyAvailable(string)": {
        "notice": "Is the property available for renting?"
      },
      "setRent(string,uint256,uint256)": {
        "notice": "Set rent for the property"
      }
    },
    "version": 1
  }
}